:020000040800F2
:1000000000140020A9010008B1010008B301000894
:10001000B5010008B7010008B901000800000000A0
:10002000000000000000000000000000BB0100080C
:10003000BD01000800000000BF010008E127000822
:10004000C3010008C3010008C3010008C301000880
:10005000C3010008C3010008C3010008C301000870
:10006000C3010008C3010008C3010008C301000860
:10007000C3010008C3010008C3010008C301000850
:10008000C3010008C3010008C3010008C301000840
:10009000C3010008C3010008C30100088D15000852
:1000A000C3010008C3010008C3010008C301000820
:1000B000C3010008C3010008B1280008C3010008FB
:1000C000C3010008C3010008C3010008C301000800
:1000D000C3010008B52A0008C3010008C3010008D5
:1000E000C3010008C3010008C301000800F002F8C2
:1000F00000F04AF80AA090E8000C82448344AAF178
:100100000107DA4501D100F03FF8AFF2090EBAE875
:100110000F0013F0010F18BFFB1A43F0010318473B
:10012000B04B0000D04B0000103A24BF78C878C113
:10013000FAD8520724BF30C830C144BF04680C60ED
:10014000704700000023002400250026103A28BF35
:1001500078C1FBD8520728BF30C148BF0B60704739
:10016000662904F06885642900F0528000207047F9
:100170001FB500F099FB04000020002103F056FE9B
:10018000E0601FBD10B510BD00F08EFC1146FFF7FA
:10019000EFFF03F051FB00F0ACFC03B4FFF7F2FFFC
:1001A00003BC00F0EFFC0000094880470948004705
:1001B000FEE7FEE7FEE7FEE7FEE7FEE7FEE7FEE717
:1001C000FEE7FEE704480549054A064B7047000074
:1001D00051280008ED000008000400200014002051
:1001E000000C0020000C00200FB41CB5074B06AA21
:1001F0007B4469460090059800F03DFB002069466D
:1002000000F04CFB1CBC5DF814FB0000A9060000CC
:100210002DE9F0410646002410687529314616A5DF
:1002200010D0AFF30080002802DA404213A507E0A7
:1002300031688A0701D512A502E0490704D511A546
:10024000012401E0AFF3008000210A2206F1240717
:1002500009E0B0FBF2FCB0FBF2F302FB1C00303013
:1002600078541846491C0028F3D123462A463046C4
:10027000BDE8F04100F092B8000000002D00000041
:100280002B000000200000002DE9F0474FF0000A8D
:1002900089460446C0F820A02046E1688847002827
:1002A00076D0252806D0D4E901219047206A401C49
:1002B0002062F1E7E168204600258847C4F81CA0C9
:1002C00006460027C4F818A02A2E09D0304602F0AE
:1002D00031FD38B304EB8708303EC8F8186019E0E8
:1002E00059F8041B204604EB87029161E1688847B6
:1002F000012F064618D1E069002820DA25F02005F4
:100300001DE0D8F8180000EB800006EB4000303804
:10031000C8F818002046E1688847064602F00AFD42
:100320000028EED1012F0AD02E2E08D12046E168F8
:1003300088477F1C0646022F45F02005C4DBA069D4
:10034000002803DA404245F00105A061E80701D02A
:1003500025F01005B6B1A6F14100192802D82036C3
:1003600045F400654A463146204625604D46FFF774
:10037000F7FE58B1012806D0ED1D25F0070000F169
:10038000080989E704E005F1040985E730468AE7B2
:10039000206ABDE8F0877047704770472DE9F04745
:1003A0000D4699469246044600F1240801688806E5
:1003B00004D5E06921F01001216000E00120A8428D
:1003C00001DD471B00E00027A1697A1902EB090053
:1003D000081AA0612078C00602D42046AFF300803E
:1003E000002608E0D4E901211AF806009047206AA7
:1003F000401C761C20624E45F4DB2078C0060AD5EE
:100400002046AFF3008006E0D4E901213020904778
:10041000206A401C2062381EA7F10107F4DC07E0C7
:10042000D4E9012118F805009047206A401C206299
:10043000281EA5F10105F3DC2046AFF300802078EB
:10044000000602D50220BDE8F0870120FBE77047D7
:100450002DE9FF4F0C461E464FF0FF378BB0D2E917
:100460000001DDF860800A908A46C1F30A5505B99B
:100470003D46002108464FF00000BAF1000F00F49D
:10048000400005DA00EB80004FF4400101EA500023
:100490004FEA9059B9F1010F00DDB9460A9850EAC8
:1004A0004A000ED044F61050A5F2FF3545432F14F4
:1004B000B8F1000F1ED07542291E1EDDC9F10002E1
:1004C0001CE0B8F1010F4FF0000001D0302103E033
:1004D000F24305E02154401CB042FBDB30460022D1
:1004E000002121540B99C1F80880C1E900200FB008
:1004F000BDE8F08FBD1B6D1CDEE74A4600DA69429D
:1005000006A800F05BFA06AB93E8070003AB83E8AC
:10051000070050460A9900F03CFB8DE80700A0F563
:1005200000501F3800900398002D0ADD42F21F0191
:100530004A460844002303A90390684600F0A5FD3D
:1005400009E0A0F500504A461F38002303A9039094
:10055000684600F0AFFD8DE807000004000C03D0F2
:100560004FF0FF30410800E01046B8F1000F03D013
:100570000022009215461EE0751E05D400F098F981
:10058000303262556D1EF9D5B3460122084302D0C0
:1005900000227F1C04E02078302801D100227F1E39
:1005A000002A099784D01DE0112D07DA00F080F9A8
:1005B000303262556D1C50EA0102F5D1084302D079
:1005C0000098C8B10EE00021681E05E0235C625C63
:1005D00063542254401E491C8142F7DBAB46A81BE2
:1005E000401E0990002004F80B000B98099AC0F8EF
:1005F0000880C0E9002B7AE711264FF0000857E782
:100600002DE9F04F88460446D21D22F0070191B033
:10061000D1E90001CDE90A0102F078FB02460B980E
:10062000C00F01D02D2007E02068810701D52B20C5
:1006300002E0202101EAC000032A099001D0072A24
:1006400005DB03464146204600F078F90BE12078AF
:10065000800601D5E06900E00620B8F1650F81460B
:1006600006D0B8F1660F18D0B8F1670F70D131E03D
:100670000020B9F1110F009001DB112301E009F115
:1006800001030AAA01A90CA8FFF7E2FEDDE90C703C
:10069000002609F10105834647E001204B46009002
:1006A0004FF000470AAA01A90CA8FFF7D1FEDDE927
:1006B0000DB00C995D46002610B909F101000D1826
:1006C000B9EB050003D4C0F1FF3609F10105A5EB34
:1006D00009002BE0B9F1010F01DA4FF00109002008
:1006E000B9F1110F0090484601DD112300E00346E7
:1006F0000AAA01A90CA8FFF7ABFEDDE90C704D4674
:1007000000268346207800070AD4AB4500DA5D4610
:1007100001A8012D04DD411911F8011C302907D071
:100720004F4502DA17F1040F04DA012082460FE088
:100730006D1EEEE7002F02DCED1B3E4403E0781C4B
:10074000A84200DD7D1CB81B00F1010A4FF00047F4
:100750002078000703D4AA4501DB4FF0FF3A0021BF
:10076000B7F1004F0DF143088DF8431024D002205B
:100770002B23002F01DA7F422D230A21021EA0F134
:10078000010000DC5FB197FBF1FC97FBF1F201FB8C
:100790001C7C17460CF1300C08F801CDEEE7A8F1EF
:1007A000010003702188090501D5452100E065217C
:1007B000A0F1010800F8011C09980FA9A1EB080796
:1007C000FF1D00B10120411901EBEA70A169384415
:1007D000081A401EA0612078C00602D42046AFF35C
:1007E0000080099828B1D4E901219047206A401C73
:1007F00020622078C00622D52046AFF300801EE09C
:10080000002E04DBB34502DD01A8805D00E030204E
:10081000D4E901219047206A401C2062761CAAF18D
:1008200001005FEA000A0AD100F03EF8C0680168E2
:10083000405CD4E901219047206A401C2062281EB8
:10084000A5F10105DCDC07E0D4E9012118F8010B72
:100850009047206A401C2062381EA7F10107F3DC94
:100860002046AFF30080032011B041E601694A1C25
:1008700002610878704700B58FB0CDE901310021E1
:10088000059105497944CDE9031011466846FFF703
:10089000FBFC0FB000BD0000E5FFFFFF0A6802F897
:1008A000010B0A607047000000487047C003002039
:1008B00030B5B0F10A024FEA900E71F100034EEA32
:1008C000817EB0EB0E0061EB91014FEA101E4EEA03
:1008D000017E10EB0E0041EB11114FEA102E4EEA93
:1008E000016E10EB0E0041EB11214FEA104E4EEA63
:1008F000014E10EB0E0041EB1141401841F1000197
:100900004FEAD00040EA41704FEAD10110EB800578
:100910004FEA810444EA907444EB01046D1944EBFE
:100920000404521BA3414FF0000348BF0A3200D514
:1009300030BD401C41F1000130BD00002DE9F04107
:100940001F46044603260168072A01F4006004DB01
:1009500008B116A505E016A503E008B115A500E04D
:1009600015A521F010002060A069C01EA0610FB184
:10097000401EA0612046AFF300804FB1D4E90121B1
:1009800038469047206A401C2062C01C206206E066
:10099000206AFAE7D4E9012115F8010B9047761E89
:1009A000F8D22046AFF30080BDE8F0814E414E0002
:1009B0006E616E00494E4600696E66002DE9F04793
:1009C000814616468AB0354878440DC88DE80D003A
:1009D00032487844801C03AC0DC884E80D0041F611
:1009E0009B300844372190FBF1F290FBF1F5A5F123
:1009F000800501FB12041B3C02D56442012000E08B
:100A00000020DFF898A080460027FA44AAF1BE0A29
:100A10000EE0E0070AD03246684607EB47010123A3
:100A20000AEB810100F046FB8DE8070064107F1C93
:100A3000002CEED1194F7F44AE3F19E0E80715D0E6
:100A400007EB04100DF1180A90E80E008AE80E007A
:100A5000C068F04201D1981908903246012306A9D6
:100A600003A800F027FB03AB83E807006D10641CAC
:100A7000002DE3D14FF0010332466946B8F1000F73
:100A800003A802D000F001FB01E000F013FBC9E96C
:100A90000001C9F808200AB0BDE8F087EC42000068
:100AA00000487047A00300207546FFF7F9FFAE46E7
:100AB00005006946534620F00700854618B020B56A
:100AC000FFF780FBBDE820404FF000064FF0000725
:100AD0004FF000084FF0000B21F00701AC46ACE8E6
:100AE000C009ACE8C009ACE8C009ACE8C0098D4653
:100AF000704710B50446AFF300802046BDE81040B3
:100B0000FFF74BBB4FF0013C50F8042B51F8043B6E
:100B10009A4221D1A2EB0C03934313EACC1317D1D1
:100B200050F8042B51F8043B9A4215D1A2EB0C0368
:100B3000934313EACC130BD150F8042B51F8043B28
:100B40009A4209D1A2EB0C03934313EACC13DBD0F6
:100B50004FF00000704700BFD01A01BAB1FA81F11E
:100B600001F0180122FA01F0CB40C1F12001DBB203
:100B7000C0B2C01A2CFA01F3D11A914311EAC31181
:100B8000E6D1704701491820ABBEFEE726000200FF
:100B900070475FEA400C08BF91F0000F4FEA8C23CA
:100BA0004FEAC12243EA51514FEA1C5018BF00F5E9
:100BB000F0404FEA300018BF41F000415FEA6C5C42
:100BC00000F02980BCF1FF3F08BF40F08040704733
:100BD000130C06BF12044FF0100C4FF0000C130E54
:100BE00004BF12020CF1080C130F04BF12010CF128
:100BF000040C930F04BF92000CF1020CD30F04BF3E
:100C000052000CF1010C11464FF00002A0F11F0040
:100C1000A0EB0C00704711F0004F08BF704731F097
:100C200000413FF4D5AF0B0C06BF09044FF0100C88
:100C30004FF0000C0B0E04BF09020CF1080C0B0F57
:100C400004BF09010CF1040C8B0F04BF89000CF1E7
:100C5000020CCB0F04BF49000CF1010CCCF12003B6
:100C6000A0EB0C0022FA03F302FA0CF241EA0301B2
:100C700000F10100704720F07F4C80EA030023F070
:100C80007F47ACEB070303F57C5300F0004003F112
:100C9000FF032DE980494FEA154B09B44FEA14438D
:100CA00025EA0B4E24EA03480FF2042606EB13272D
:100CB00049083E785FEA320203FB0667C7F5000782
:100CC00007FB06F64FEA54374FEAD64606F102060E
:100CD00007FB066CCCF1005C4FEA1C472CEA074C82
:100CE00007FB06F40CFB06F504EB15464FEA9616D7
:100CF00034BF00204FF000404FEAD13706FB07FC1D
:100D00004FEA1C4C0CFB0BF7D21B03FB0CF761EBFF
:100D100007010CFB0EF7B0EB074072EB17420CFB20
:100D200008F734BFA2EB0742B2EB074261EB174171
:100D30004FEA0C444FEA910706FB07FC4FEA1C4CB4
:100D40000CFB0BF7B0EBC74072EB573203FB0CF711
:100D500034BFA2EBC742B2EBC74261EB57310CFB89
:100D60000EF7B0EBC70072EB57720CFB08F734BFFD
:100D7000A2EBC702B2EBC70261EB5771039F4FEAC8
:100D8000816141EA921104EBCC044FEAD1374FEA7A
:100D9000826206FB07FC42EA90124FEA80604FEA4B
:100DA0001C4C0CFB0BF7D21B03FB0CF761EB070190
:100DB0000CFB0EF7B0EB074072EB17420CFB08F789
:100DC00034BFA2EB0742B2EB074261EB17414FEA97
:100DD0008C554FEA910704EB9C2406FB07FC4FEA75
:100DE0001C4C0CFB0BF7B0EBC74072EB573203FB0C
:100DF0000CF734BFA2EBC742B2EBC74261EB5731ED
:100E00000CFB0EF7B0EBC70072EB57720CFB08F748
:100E100034BFA2EBC702B2EBC70261EB577115EB0F
:100E20004C254FEA816141EA92114FEA82624FEA12
:100E3000D13742EA901206FB07FC44F100044FEA66
:100E400080604FEA1C4C0CFB0BF7D21B03FB0CF72A
:100E500061EB07010CFB0EF7B0EB074072EB17429A
:100E60000CFB08F734BFA2EB0742B2EB074261EB81
:100E7000174115EB1C154FEA813141EA92414FEAC7
:100E8000823242EA90424FEA80304FEA0C7644F1D7
:100E9000000448EA03434EEA0B484FF0000EB2EB61
:100EA000080C71EB030724BF624639464EEB0E0E69
:100EB0004FF0000B0018524149414BEB0B0BB2EBCA
:100EC000080C71EB03077BF1000B24BF6246394627
:100ED0004EEB0E0E4FF0000B0018524149414BEB08
:100EE0000B0BB2EB080C71EB03077BF1000B24BF7B
:100EF000624639464EEB0E0E51EA020718BF46F025
:100F0000010616EB0E7655F1000254F1000103D5EF
:100F1000BDE88901BDE80088BDE88901BDE8004859
:100F2000B619524141EB0101A3F1010370478080E2
:100F30007F7E7D7C7B7A7978777676757473727133
:100F400071706F6E6E6D6C6C6B6A6A6968686766EB
:100F500066656464636362616160605F5F5E5E5D7D
:100F60005D5C5C5B5B5A5A595958585757565655F1
:100F700055555454535352525251515050504F4F53
:100F80004F4E4E4D4D4D4C4C4C4B4B4B4A4A4A49A3
:100F900049494848484747474746464645454544E6
:100FA0004444444343434342424242414141002B73
:100FB0009C4630D477002BD01CB54FEA370703B4DA
:100FC0004FF010004FF01001BAF1000F06D0BCF145
:100FD000000FDCBF40F0080040F008014FF00000B7
:100FE0000FBCBDE810400BF1010BBBF1010F08BFB6
:100FF0005FEA170722BF12F1010211F101014FF060
:10100000004143F1000300F0004043EA0000704754
:10101000F9D35708D0E746EA064613F1400F4FEAE6
:1010200016461FDD13F1200FDFBF16430A460021CD
:1010300020335B42BED0C3F1200746EA064602FADF
:1010400007F74FEA164646EA0706C3F1200722FAD9
:1010500003F201FA07F721FA03F14FF0000342EA25
:101060000702A7E746EA020646EA06464FEA1646A0
:1010700046EA0106BCBF46EA0646360C4FF00003BE
:101080004FF000024FF0000194E72DE9804C9A46A2
:10109000934670B491E8380007C831EA400C48BF65
:1010A00034EA430C03D5FFF7E6FDFFF780FFF0BC01
:1010B000BDE8008C2DE9804C9A46934670B491E8C7
:1010C000380007C810F0804F08BF13F0804F03D1DD
:1010D00000F005F8FFF76BFFF0BCBDE8008C20F0D6
:1010E0007F4780EA030023F07F4C07EB0C03A3F556
:1010F0007C5300F00040A3F1FE0392F0000F00F0DB
:10110000B38095F0000F00F077802DE901494FEA98
:1011100011404FEA144621EA004800FB06FC24EA8D
:10112000064708FB06F607FB08F800FB07F718EB75
:1011300006484CEB164C4FEA124B18EB07484FEAA7
:1011400015464CEB174022EA0B4E0BFB06FC25EA3A
:1011500006470EFB06F607FB0EFE0BFB07F71EEB22
:10116000064E4CEB164C4FF000061EEB074E4CEBB8
:10117000174B18EB0B0840F1000018EB0E0B58EB67
:10118000000840F100008F1A4FF000013CBFC94336
:10119000661B14BFB5EB040C00213CBFC943F61B12
:1011A0004FEA17444EEA8E0E27EA04454FEA1C47E1
:1011B00004FB07622CEA074C05FB07F70CFB05F65E
:1011C00004FB0CFC16EB074642EB174216EB0C46F1
:1011D00042EB1C421BEB060658EB0202414146EA79
:1011E0009E0601D5BDE80189B619524141EB0101C6
:1011F000A3F10103BDE801894FEA14454FEA114705
:1012000024EA054621EA074C05FB07F406FB07F72D
:101210000CFB06F105FB0CFC11EB074144EB1744FA
:101220004FEA124711EB0C4144EB1C4422EA074CF5
:1012300005FB07F206FB07F70CFB06F605FB0CFCAB
:1012400016EB074642EB174216EB0C4642EB1C45E9
:101250006A1854F1000148BF7047B619524141EB7A
:101260000101A3F10103704795F0000F37D04FEA59
:1012700011424FEA144721EA024624EA074C02FBD6
:1012800007F106FB07F70CFB06F402FB0CFC14EB62
:10129000074441EB17414FEA154714EB0C4441EB6F
:1012A0001C4125EA074C02FB07F506FB07F70CFB80
:1012B00006F602FB0CFC16EB074645EB174516EB52
:1012C0000C4645EB1C42121951F1000148BF704712
:1012D000B619524141EB0101A3F1010370474FEAF6
:1012E00014454FEA114724EA054621EA074C05FB5D
:1012F00007F106FB07F70CFB06F24FF0000605FBB3
:101300000CFC12EB074241EB174112EB0C4251EB84
:101310001C4148BF7047921841EB0101A3F1010342
:101320007047000000B587B00121480200F064FF5B
:101330000121042000F060FF00208DF81B004020F8
:10134000ADF8180003208DF81A0006A91C4800F01B
:1013500013FB01208DF80900002004904FF4602059
:1013600003900020019001208DF8140000208DF8DA
:10137000080001A9134800F04BF80121114800F0C2
:1013800023F80523012206210E4800F069F80D48D4
:1013900000F0C2F800BF0B4800F02FF80028FAD187
:1013A000084800F0C9F800BF064800F018F8002807
:1013B000FAD10121034800F0B4F807B000BD0000E5
:1013C000000801400024014021B1826842F001027E
:1013D000826003E0826822F0010282607047014669
:1013E00000208A6802F004020AB1012000E0002017
:1013F00070470146C86C80B27047014600208A6879
:1014000002F008020AB1012000E00020704700004D
:1014100030B502460020002350680F4C20400D7963
:101420000C6844EA05242043506090680B4C20402F
:10143000D1E902542C434D7944EA4504204390609D
:10144000D06A20F470000C7C641EE4B2234340EAAE
:101450000350D06230BD0000FFFEF0FFFDF7F1FF4A
:10146000F0B504460D4600200021092D11DDE0688D
:10147000A5F10A0606EB4607072606FA07F1884398
:10148000A5F10A0606EB460603FA06F10843E060FA
:101490000CE0206905EB4507072606FA07F18843AB
:1014A00005EB450603FA06F108432061072A0FDA27
:1014B000606B561E06EB86071F2606FA07F1884367
:1014C000561E06EB860605FA06F10843606322E025
:1014D0000D2A0FDA206BD61F06EB86071F2606FAA9
:1014E00007F18843D61F06EB860605FA06F1084386
:1014F000206310E0E06AA2F10D0606EB86071F26C6
:1015000006FA07F18843A2F10D0606EB860605FAF6
:1015100006F10843E062F0BD816841F00801816096
:10152000704721B1826842F4A002826003E08268C1
:1015300022F4A00282607047816841F0040181605A
:10154000704710B508222D21A62000F0C9FC052007
:1015500000F012F803223121A62000F0C1FC052082
:1015600000F00AF80B222C21A62000F0B9FC05207F
:1015700000F002F810BD00000349086000BF0249F6
:1015800009680029FBD170473C00002010B54FF4DA
:10159000007000F035F820B31248006800F40070C5
:1015A00090B11148007830B100200F490870012037
:1015B0000E49087008E0032000F080FD0C48006828
:1015C00020F008000A4908600648006800F400702E
:1015D00018B91921032001F0DDF84FF4007000F074
:1015E00009F810BD080C01403A0000203900002025
:1015F00034000020014908607047000014040140D5
:10160000014600200022074B1B6803EA0102054B3C
:1016100014331B680B4013B10AB1012000E0002015
:101620007047000000040140002123498279002A0C
:101630003AD00A46126803689A430B461A600A1D9C
:10164000126803689A430B1D1A60027911440A68F4
:1016500003681A430A60184A0832126803689A43FA
:10166000154B08331A601A1D126803689A43124B0F
:101670000C331A604279102A0ED11A1F12680368BF
:101680001A430D4B08331A601A1D126803681A4377
:10169000094B0C331A600DE00749427911440A687E
:1016A00003681A430A6005E0027911440A68036876
:1016B0009A430A60704700000004014030B50446B8
:1016C00004254FF4302000F089F80546042D17D189
:1016D0000C48006940F002000A490861084644616C
:1016E000006940F0400008614FF4302000F076F8C7
:1016F00005460448006941F6FD710840014908614A
:10170000284630BD0020024004200B49C96801F082
:10171000010109B101200EE00749C96801F0040187
:1017200009B1022007E00449C96801F0100109B1BC
:10173000032000E0042070470020024003480069B5
:1017400040F080000149086170470000002002401D
:1017500078B506460C46042500200090E80200F00B
:101760003DF80546042D24D11348006940F00100DE
:10177000114908613480E80200F030F80546042D74
:1017800010D1B01C0090200C00990880E80200F0F5
:1017900025F805460848006941F6FE7108400649EB
:1017A000086106E00448006941F6FE7108400249FC
:1017B0000861284678BD0000002002400146086804
:1017C000704700000248034948600348486070477A
:1017D0002301674500200240AB89EFCD00B50246EA
:1017E0000423FFF791FF034603E0FFF78DFF034655
:1017F000521E012B01D1002AF7D102B90523184648
:1018000000BD0000F0B589B0002500273748FFF77C
:10181000F0FD00F00F050A20FFF7AEFE3348FFF79A
:10182000E8FD00F00F0045EA00153148FFF7C6FF5C
:10183000012858D000F0E6FD07468FB12D4800681A
:1018400040F480702B49086040F2DC50FFF794FEB2
:101850002848006820F480702649086000BFFEE731
:101860002A4625A101A8FEF7BFFC2248006840F0E7
:101870002000204908606420FFF77EFE002422E05B
:10188000234951F8240001F08DF8002606E021A03C
:1018900001F003F9C820FFF76FFE761C032EF6DB7C
:1018A0001EA001F0FAF84FF4FA70FFF765FE01A8E8
:1018B00001F0F3F84FF4FA70FFF75EFE00211D48C7
:1018C00001F087F9641C032CDADB0A48006820F079
:1018D000200008490860FFF775FF01210448FFF761
:1018E00037FFFFF72BFF09B0F0BD000000240140D7
:1018F000008C00080C0C014041542B4E414D453DDD
:10190000536B61547261636B5F25640D0A000000C4
:101910004400002041540D0A0000000041542B55A2
:101920004152543D3131353230302C302C300D0A9B
:10193000000000000038014030B500228B071C0F6A
:101940000F2303FA04F20B4B8C1053F8243093430B
:10195000084C8D1044F8253023468C1053F8243061
:101960008C07240F00FA04F42343024C8D1044F832
:10197000253030BD080001402DE9F0410246002528
:101980000026002000230024002791F803C00CF05B
:101990000F0591F803C00CF0100CBCF1000F03D040
:1019A00091F802C04CEA050591F800C0BCF1000FA7
:1019B00031D0146800202BE04FF0010C0CFA00F33A
:1019C000B1F800C00CEA03069E4220D183004FF01C
:1019D0000F0C0CFA03F7BC4305FA03FC4CEA0404B1
:1019E00091F803C0BCF1280F06D14FF0010C0CFA9E
:1019F00000FCC2F814C00AE091F803C0BCF1480F23
:101A000005D14FF0010C0CFA00FCC2F810C0401CCC
:101A10000828D1D31460B1F800C0BCF1FF0F34DD49
:101A2000546800202EE000F1080C4FF0010808FA7D
:101A30000CF3B1F800C00CEA03069E4221D18300EA
:101A40004FF00F0C0CFA03F7BC4305FA03FC4CEA09
:101A5000040491F803C0BCF1280F05D100F1080C73
:101A600008FA0CF8C2F8148091F803C0BCF1480FD2
:101A700007D100F1080C4FF0010808FA0CF8C2F881
:101A80001080401C0828CED35460BDE8F0810000CF
:101A90001FB50121042000F0AFFB0121082000F058
:101AA000ABFB0121102000F0A7FB0121084600F04C
:101AB000A3FB10208DF80F004FF49070ADF80C00D0
:101AC00003208DF80E0003A92348FFF755FF0420DB
:101AD0008DF80F008001ADF80C0003208DF80E008A
:101AE00003A91E48FFF748FF04208DF80F004003AC
:101AF000ADF80C0003208DF80E0003A91848FFF77D
:101B00003BFF17208DF8000000208DF801008DF8B4
:101B1000020001208DF80300684600F001FB092156
:101B20000120FFF709FF4FF40070019001208DF8AC
:101B30000A0000208DF8080010208DF8090001A887
:101B4000FFF772FD04480C30006840F480700249D1
:101B50000C3108601FBD0000000C0140000801406E
:101B6000001001402DE9F0410024002605E00E4858
:101B7000FFF73FFC204484B2761C0A2EF7DB0A20D4
:101B800094FBF0F084B2204602F09AFE0746074923
:101B900002F0DEFE06464FF0804102F0D9FE054617
:101BA0002846BDE8F0810000002401403333533A59
:101BB00010B580223E21D02000F092F90520FFF7D9
:101BC000DBFC1B221621D02000F08AF90520FFF74C
:101BD000D3FC07221521D02000F082F90520FFF761
:101BE000CBFC03223E21D02000F07AF90520FFF73C
:101BF000C3FC10BD00B585B00121092000F0FCFA3E
:101C00000121480500F0E8FA0121084600F0D4FA65
:101C10001C208DF81300C020ADF8100003208DF8B3
:101C2000120004A90F48FFF7A7FE4FF48060ADF83B
:101C30000A000001ADF80C000B4800904BF6FF7055
:101C4000ADF806000020ADF804000B20ADF8080048
:101C50006946064800F0B0F90121044800F06BF92C
:101C600005B000BD000C0140801A06000054004081
:101C70002DE9F047064689461746984642F2107409
:101C800000E0641E4FF40031564800F078F908B1C6
:101C9000002CF6D11CB94FF0FF30BDE8F08742F2BE
:101CA000107401214F4800F025F901214D4800F042
:101CB0004EF900E0641E4C494A4800F027F908B983
:101CC000002CF7D114B94FF0FF30E6E742F2107460
:101CD00000223146434800F0E5F900E0641E434924
:101CE000404800F013F908B9002CF7D114B94FF0AF
:101CF000FF30D2E742F2107401213A4800F01BF99C
:101D00004946384800F0D7F900E0641E3749891C7D
:101D1000344800F0FBF808B9002CF6D114B94FF0A4
:101D2000FF30BAE742F2107401212E4800F00FF99B
:101D300000E0641E2C492B4800F0E8F808B9002C9C
:101D4000F7D114B94FF0FF30A7E742F21074012227
:101D50003146244800F0A6F900E0641E2249491CDF
:101D6000204800F0D3F808B9002CF6D114B94FF090
:101D7000FF3092E742F21074002515E000E0641E87
:101D800019493F31174800F0C1F808B9002CF6D1C5
:101D900014B94FF0FF3080E742F210741148103050
:101DA000008808F805006D1CBD42E7DB00210D48E6
:101DB00000F0A0F801210B4800F0D5F800E0641E07
:101DC0004FF40031074800F0DAF808B1002CF6D1E2
:101DD00014B94FF0FF3060E742F21070044600BFC4
:101DE0005BE7000000540040010003008200070090
:101DF0002DE9F047064689461746984642F2107488
:101E00000121344800F0A3F800E0641E3249314853
:101E100000F07CF808B9002CF7D11CB94FF0FF3066
:101E2000BDE8F08742F2107400223146294800F0E4
:101E300039F900E0641E2949264800F067F808B91E
:101E4000002CF7D114B94FF0FF30E9E742F21074DB
:101E50004946204800F02FF900E0641E1F49891C04
:101E60001C4800F053F808B9002CF6D114B94FF013
:101E7000FF30D5E742F21074002515E018F8051080
:101E8000144800F018F900E0641E1449891C114838
:101E900000F03CF808B9002CF6D114B94FF0FF302F
:101EA000BEE742F210746D1CBD42E7DB0121094818
:101EB00000F059F800E0641E4FF40031054800F0CE
:101EC0005EF808B1002CF6D114B94FF0FF30A7E747
:101ED00000BFA5E700540040010003008200070096
:101EE00037B504460D4602AB012229462046FFF7CE
:101EF0007FFF3EBD21B1028842F48062028004E08F
:101F000002884FF6FF331A400280704770B50246D0
:101F10000024002500230020958A138B1B0445EA2A
:101F2000030626F07F4404EA01068E4201D1012017
:101F300000E0002070BD21B1028842F00102028061
:101F400004E002884FF6FE731A400280704721B108
:101F5000028842F48072028004E002884FF6FF6338
:101F60001A400280704721B1028842F40072028058
:101F700004E002884FF6FF531A40028070470CB508
:101F80000246002000230193009300920B0F01935F
:101F900021F07F41019B1BB1009B1433009303E0B0
:101FA000090C009B18330093009B1B680B400BB17E
:101FB000012000E000200CBD2DE9F04385B004466F
:101FC0000D460026B1460427DFF8CC80A6884FF6E0
:101FD000C0700640684600F01FF9DDF808802F4801
:101FE000B8FBF0F01FFA80F946EA0906A6802088BF
:101FF0004FF6FE7108402080002629492868884253
:102000000CD828684000B8FBF0F087B2042F00DA43
:1020100004273E4309F10100208427E0E8884BF6BD
:10202000FF71884206D1286800EB4000B8FBF0F051
:1020300087B209E0286800EBC00101EB0010B8FB93
:10204000F0F087B247F48047C7F30B0008B947F0B8
:10205000010747F4004006434FF4967009FB00F077
:102060004FF47A7190FBF1F0401C2084A683208805
:1020700040F00100208026884FF6F5300640A88801
:102080006989084306432680A88929890843208155
:1020900005B0BDE8F083000000127A0040420F0056
:1020A000A086010012B141F0010102E04FF6FE737B
:1020B00019400182704701827047000001460020EC
:1020C0000AE0074A12F830208A4204D10022044B69
:1020D00003F830207047401C0A28F2DB00BFF9E704
:1020E0001C01002010B5002202213C20FFF7F8FE61
:1020F0000520FFF741FA182200213C20FFF7F0FEEF
:102100000520FFF739FA10BD00F01F0201219140B0
:102110004209920002F1E022C2F80011704700006B
:1021200070B5002100230F22C47804B3154C246835
:1021300004F4E064C4F5E064210AC1F10403CA4078
:10214000447804FA03F184781440214309010E4CC9
:102150000678A155047804F01F050124AC400578E9
:102160006D11AD0005F1E025C5F8004109E00478E6
:1021700004F01F050124AC40044D0678761145F8A3
:10218000264070BD0CED00E000E400E080E100E0DE
:1021900010B5002807DA0A07140E054A00F00F03ED
:1021A0001B1FD45403E00A07130E024A135410BD38
:1021B00018ED00E000E400E029B1064A526902434C
:1021C000044B5A6104E0034A52698243014B5A614D
:1021D000704700000010024029B1064AD26902434C
:1021E000044BDA6104E0034AD2698243014BDA61AD
:1021F000704700000010024029B1064A926902436C
:10220000044B9A6104E0034A92698243014B9A614C
:10221000704700000010024030B500210022002469
:1022200000232D4D6D6805F00C0121B1042905D066
:10223000082923D105E0294D056022E0284D0560DD
:102240001FE0254D6D6805F47012234D6D6805F48F
:102250008034022505EB92421CB9224D554305609E
:102260000BE01D4D6D6805F400351DB11B4D554348
:10227000056002E01A4D5543056002E0174D056008
:1022800000BF00BF144D6D6805F0F0010909164D3F
:102290006B5C0568DD4045600F4D6D6805F4E061DD
:1022A000090A114D6B5C4568DD4085600A4D6D681B
:1022B00005F46051C90A0C4D6B5C4568DD40C56092
:1022C000054D6D6805F44041890B084D6B5CC56890
:1022D000B5FBF3F5056130BD0010024000127A0035
:1022E0000024F40000093D00000000201000002040
:1022F0001CB56B4606223221A620FFF7B9FC9DF8DB
:102300000310090209B29DF8022041EA020002F01E
:10231000BFFA0D4908609DF80110090209B29DF845
:10232000002041EA020002F0B3FA074948609DF834
:102330000510090209B29DF8042041EA020002F0EA
:10234000A7FA014988601CBDEC0000201CB56B4653
:1023500006221D21D020FFF78BFC9DF803109DF86D
:10236000022041EA0221494208B202F091FA0D49E5
:1023700008609DF801109DF8002041EA02214942C1
:1023800008B202F085FA074948609DF805109DF8EB
:10239000042041EA0221494208B202F079FA0149D7
:1023A00088601CBD040100201CB56B460622032179
:1023B0003C20FFF75DFC9DF805109DF8042041EAE4
:1023C0000221494208B202F063FA0D4908609DF803
:1023D00001109DF8002041EA0221494208B202F0B2
:1023E00057FA074948609DF803109DF8022041EA1A
:1023F0000221494208B202F04BFA014988601CBD33
:10240000F800002070B586B0002501F071FB0024B3
:102410001AE02A4951F8240002F01EFA00B204A979
:1024200021F81400264951F8240002F015FA00B2F0
:1024300002A921F81400234951F8240002F00CFAF3
:1024400000B22DF81400641C032CE2DB4FF47A7008
:10245000FFF792F801F04CFB002429E004A931F9C0
:10246000140002F015FA0646144850F824103046BD
:1024700002F0BEF900D1012502A931F9140002F0E1
:1024800007FA06460E4850F82410304602F0B0F91C
:1024900000D102253DF9140002F0FAF90646094878
:1024A00050F82410304602F0A3F900D10325641C33
:1024B000032CD3DB284606B070BD0000EC000020E2
:1024C000F80000200401002010B588B00024AA22E2
:1024D0002146641C0DF801202146641C0DF80120E2
:1024E000784802782146641C0DF801200088C0F36A
:1024F00007222146641C0DF8012072480068C0F3D1
:1025000007422146641C0DF801206E480068020E47
:102510002146641C0DF801206A48027B2146641C98
:102520000DF801200089C0F307222046611CCCB2BF
:102530000DF8002063484068C0F307422046611C44
:10254000CCB20DF800205F484068020E2046611CA6
:10255000CCB20DF800205B48027A2046611CCCB258
:102560000DF8002057480089C0F307222046611C5F
:10257000CCB20DF8002053488068C0F307422046D3
:10258000611CCCB20DF800204E488068020E204637
:10259000611CCCB20DF800204B4802782046611C2B
:1025A000CCB20DF8002048480088C0F3072220462E
:1025B000611CCCB20DF8002043480068C0F307420C
:1025C0002046611CCCB20DF800203F480068020E86
:1025D0002046611CCCB20DF800203B48027B20460F
:1025E000611CCCB20DF8002037480089C0F30722E7
:1025F0002046611CCCB20DF8002033484068C0F37F
:1026000007422046611CCCB20DF800202E484068DD
:10261000020E2046611CCCB20DF800202A48027A36
:102620002046611CCCB20DF8002027480089C0F379
:1026300007222046611CCCB20DF800202248806899
:10264000C0F307422046611CCCB20DF800201E48A2
:102650008068020E2046611CCCB20DF800201B4899
:1026600002782046611CCCB20DF800201748008883
:10267000C0F307222046611CCCB20DF8002013489D
:102680000068C0F307422046611CCCB20DF8002060
:102690000E480068020E2046611CCCB20DF80020E6
:1026A00055222046611CCCB20DF800202046611C4A
:1026B000CCB20DF800202021684600F0E1F908B006
:1026C00010BD000004010020EC00002030000020BC
:1026D0004AF6AA200249088040100884704700008A
:1026E0007C03002010B500F001F810BD0CB50020EF
:1026F000019000902548006840F48030234908602C
:1027000000BF2248006800F4003000900198401C8F
:102710000190009818B90198B0F5A06FF1D11B484D
:10272000006800F4003010B10120009001E00020AA
:1027300000900098012828D11548006840F010004A
:10274000134908600846006820F003000860084646
:10275000006808600D4840680C49486008464068B9
:1027600048600846406848600846406820F003001A
:1027700048600846406840F00100486000BF0348D8
:10278000406800F00C000428F9D10CBD0010024094
:1027900000200240024600200BE0104B13F83030BE
:1027A000934204D10D4B03EBC00359607047431CA7
:1027B000D8B20A28F1D100200CE0084B13F83030D1
:1027C00033B9064B03F8302003EBC0035960EDE743
:1027D000431CD8B20A28F0D100BFE7E71C01002053
:1027E0001849096821B117490968491E154A11603D
:1027F000002024E0144911F8301001B91DE01249FD
:1028000001EBC001496849B10F4901EBC0014968BA
:10281000491E0D4A02EBC00251600DE00A4911F851
:10282000302001219140094A12681143074A116082
:102830000021054A02F8301000BF411CC8B20A2826
:10284000D8DB70473C0000201C0100203400002031
:1028500010B51348006840F00100114908600846AF
:102860004068104908400E494860084600680E4913
:1028700008400B4908600846006820F48020086082
:102880000846406820F4FE0048604FF41F0088604E
:10289000FFF728FF4FF000600449086010BD0000FA
:1028A000001002400000FFF8FFFFF6FE08ED00E018
:1028B0002DE9F0411548008820F0010013490880F7
:1028C0001348007800BB1348006820F0020011494B
:1028D000086014210120FFF75DFF0F48006801F038
:1028E0002BFE06460D4A0E4B01F0E8FA044601F0B5
:1028F000B3FA0949086001F0FBF801F0E3F909486F
:10290000007808B1FFF7E0FDBDE8F0811008004055
:10291000E000002034000020300000207B14AE478F
:10292000E17A943F1C00002010B586B004460121D6
:102930000420FFF751FC01A8FFF76EFC42F2107172
:102940000298B0FBF1F0401E1549088004EB8400AA
:102950000121C1EB40001249091D088010482838A8
:10296000008840F010000E49283908800846008889
:1029700020F0080008800A481C38008840F0010058
:1029800007491C39088006482838008840F00100B3
:102990000349283908801E20FFF7B6FB06B010BD9A
:1029A0002808004030B585B0044601210420FFF717
:1029B00023FC01218803FFF71FFC18208DF813006A
:1029C0004FF40070ADF8100003208DF8120004A938
:1029D0002048FEF7D1FF04208DF813000002ADF867
:1029E000100003208DF8120004A91A48FEF7C4FF56
:1029F00000940020ADF80C000C20ADF80A00002077
:102A0000ADF80800ADF80600ADF8040069461248BC
:102A100000F010F9012240F225510F4800F0E5F8CE
:102A200025200121002807DA0A07150E0B4A00F0BD
:102A30000F031B1FD55403E00A07130E084A135453
:102A400000BF2520FFF760FB0121034800F0C1F81B
:102A500005B030BD000801400038014018ED00E02D
:102A600000E400E000BF0549098801F040010029A9
:102A7000F9D0C1B2014A121D1180704700380140DF
:102A800010B503460C4603E013F8010BFFF7EAFF0D
:102A9000201EA4F10104F7D110BD10B50346002497
:102AA00003E0185DFFF7DEFF641C185D0028F8D115
:102AB00010BD000010B53A48008800F0080018B1B9
:102AC0003748001D008810BD3548008800F002001E
:102AD00018B13348001D0088F5E73148008800F040
:102AE0002000002859D040F225512D4800F062F80E
:102AF0002B4800882A48001D0088C1B2294890F858
:102B00000002401CC0B2274A82F80002115410464D
:102B100090F80002114681F80002084690F8000281
:102B2000085C502818D006DC432809D0452819D065
:102B30004E2830D10AE0512826D053282BD11CE052
:102B400001201949087000F0E3FD25E016480078DF
:102B500008B100F045FD1FE01348007808B100F00F
:102B600085FD19E01048007830B100200E4908704A
:102B70000E49087001F0D8F80EE00D48007810B941
:102B800001200B49087007E00948007810B10020C7
:102B90000749087000E000BF00BF00BF93E70000D6
:102BA000003801406C01002054000020E0000020AB
:102BB0001C00002010B50022002340F66A14A14238
:102BC00000D100BF0A1201249440A3B2DC43048068
:102BD00010BD21B1828942F40052828104E08289D1
:102BE0004DF6FF731A4082817047F0B5034600240A
:102BF00000260025002040F66A17B94200D100BF28
:102C00001846C1F3421401F01F06012707FA06F522
:102C1000012C01D10C3004E0022C01D1103000E075
:102C200014301AB107682F43076002E00768AF430A
:102C30000760F0BD2DE9F04786B005460E4600243A
:102C4000A24600BFA1460027B08900B100BF2F46B1
:102C50002C8A4CF6FF700440F08804432C82AC8927
:102C60004EF6F3100440B088318908437189084357
:102C70000443AC81AC8A4FF6FF400440B089044362
:102C8000AC8201A8FFF7C8FA1F48874202D1DDF8DD
:102C900010A001E0DDF80CA0A88900F4004040B1CC
:102CA0000AEBCA0000EB0A1031684900B0FBF1F8EA
:102CB00007E00AEBCA0000EB0A1031688900B0FB9C
:102CC000F1F86420B8FBF0F004012009642101FB55
:102CD0001089A88900F4004040B1322000EBC900FF
:102CE000B0FBF1F000F00700044308E0322000EBF5
:102CF00009106421B0FBF1F000F00F0004432C81B7
:102D000006B0BDE8F087000000380140490050EAF5
:102D1000C12018BF04204A0D18BF40F0010040F246
:102D2000FF72B2EB515F08BF40F00200012808BFFC
:102D30000520704730380A2801D201207047002052
:102D4000704700002DE9F041B1480168B1480068C2
:102D500001F01EFC804601F0EFFB064600224FF01A
:102D6000804301F053F9044601F076F8AA4908605F
:102D7000AA480168AA48006801F00AFC804601F0F0
:102D8000DBFB064600224FF0804301F03FF904468A
:102D900001F062F8A3490860A3480168A3480068ED
:102DA00001F0F6FB804601F0C7FB064600224FF01B
:102DB000804301F02BF9044601F04EF89C4908606D
:102DC000954801689248006801F0C0FE04469948A1
:102DD00001684FF07E5001F049FC0546214601F0A4
:102DE00045FC954908608F4801688C48006801F0EF
:102DF000ADFE04468F4801684FF07E5001F036FC6E
:102E00000546214601F032FC8C490860884801687B
:102E10008548006801F09AFE0446864801684FF034
:102E20007E5001F023FC0546214601F01FFC844939
:102E30000860784801687648006801F087FE81499B
:102E40000860774801687548006801F07FFE7E4998
:102E50000860764801687448006801F077FE7B4995
:102E600008607B4801687B48006801F091FB804660
:102E700001F062FB064600224FF0804301F0C6F8E5
:102E8000044600F0E9FF744908607448016874481A
:102E9000006801F07DFB804601F04EFB06460022F3
:102EA0004FF0804301F0B2F8044600F0D5FF6D49C1
:102EB00008606D4801686D48006801F069FB804654
:102EC00001F03AFB064600224FF0804301F09EF8E5
:102ED000044600F0C1FF664908605F4801685C482D
:102EE000006801F033FE0446624801684FF07E50EE
:102EF00001F0BCFB0546214601F0B8FB5E490860C5
:102F0000584801685548006801F020FE04465948B9
:102F100001684FF07E5001F0A9FB0546214601F003
:102F2000A5FB56490860524801684F48006801F007
:102F30000DFE04464F4801684FF07E5001F096FBAD
:102F40000546214601F092FB4D4908604148016861
:102F50003F48006801F0FAFD4A49086040480168AE
:102F60003E48006801F0F2FD474908603F480168AB
:102F70003D48006801F0EAFD444908604449314891
:102F8000006801F0B1FD0BD341492F48006801F002
:102F9000ABFD05D33E492D48006801F0A5FD11D2D7
:102FA0003C481C4908603C481949086039481C499C
:102FB000086039481949086036481C490860364895
:102FC0001949086035492F48006801F08DFD0BD381
:102FD00032492D48006801F087FD05D32F492B4861
:102FE000006801F081FD11D22A481A4908602A4878
:102FF0001749086027481A49086027481749086098
:1030000024481A490860244817490860BDE8F0813F
:103010005C000020580000207000002064000020A8
:1030200060000020740000206C0000206800002078
:1030300078000020240000207C0000208000002078
:1030400084000020880000208C00002090000020D8
:103050009800002094000020AC000020A000002078
:103060009C000020B0000020A8000020A400002048
:10307000B400002028000020B8000020BC00002080
:10308000C0000020C4000020C8000020CC000020A8
:1030900000002F4400803B4500401CC50000FA455D
:1030A00030B585B0FE48007800F0200060B1FC48E3
:1030B000006820F02000FA4908600020F9490870F3
:1030C000F949087000F030FEF648007830B9F7484A
:1030D000007818B10020F549087041E0F148007807
:1030E00068B9F348007850B10020F1490870EF4901
:1030F0000870ED48007898BB00F00AFB30E0E94822
:10310000007868B1E948007850B10020E8490870BB
:10311000E6490870E448007810BB00F061FA1FE04F
:10312000E0480078E0B1E2480078C8B10020E0490A
:103130000870DE490870DC48007888B9DD4800680E
:1031400040F48070DB4908604FF47A70FEF714FA9F
:10315000D848006820F48070D649086000F0D8FA9A
:10316000D0480078002874D000F0C2FCFFF7EAFDD8
:10317000D148006820B1012848D0022845D18CE010
:10318000CE490868CE49096801F0AEFC04D2CB48AC
:103190000068CB4908600AE0C8490868C94909685D
:1031A00001F0A2FB03D2C5480068C6490860C349C4
:1031B0004868C549096801F097FC04D2BF484068D7
:1031C000C14908600AE0BD494868C049096801F082
:1031D0008BFB03D2B9484068BC490860B74988688E
:1031E000BB49096801F080FC04D2B4488068B84942
:1031F00008600AE0B1498868B649096801F074FBC3
:1032000003D2AE488068B349086080E0B2490868DC
:10321000B249096801F068FC04D2AF480068AF49C0
:1032200008600AE0AC490868AD49096801F05CFB38
:1032300003D2A9480068AA490860A7494868A94973
:10324000096801F051FC05D2A3484068A54908600F
:103250000BE0B3E1A0494868A349096801F044FBC9
:1032600003D29D484068A04908609B4988689F49EF
:10327000096801F039FC04D2974880689B490860CE
:103280000AE0954988689A49096801F02DFB03D244
:10329000914880689649086039E000240BE0954A1F
:1032A00052F82410944A52F8240001F071F992491E
:1032B00041F82400641C032CF1DB90480068401C9A
:1032C0008E4908600846006801F0E2FA04468A491F
:1032D0000868214601F0CAF98949086087480068F2
:1032E00001F0D6FA044684494868214601F0BEF947
:1032F000844908608148006801F0CAFA04467E49A2
:103300008868214601F0B2F97F49086000BF00BF1C
:103310007EA0FFF7C2FB6B48006801F00DF9044680
:1033200022460B467BA16846FCF75EFF6846FFF726
:10333000B4FB7AA0FFF7B1FB6148006801F0FCF82C
:10334000044622460B4673A16846FCF74DFF6846CB
:10335000FFF7A3FB72A0FFF7A0FB5C48006801F039
:10336000EBF8044622460B466AA16846FCF73CFF90
:103370006846FFF792FB69A0FFF78FFB5248006891
:1033800001F0DAF8044622460B4662A16846FCF7D3
:103390002BFF6846FFF781FB61A0FFF77EFB4D48DE
:1033A000006801F0C9F8044622460B4659A1684658
:1033B000FCF71AFF6846FFF770FB58A0FFF76DFB9C
:1033C0004348006801F0B8F8044622460B4651A174
:1033D0006846FCF709FF6846FFF75FFB51A0FFF75F
:1033E0005CFB51A0FFF759FB3D48006801F0A4F8D1
:1033F000044622460B4647A16846FCF7F5FE6846A0
:10340000FFF74BFB45A0FFF748FB3448006801F08D
:1034100093F8044622460B463EA16846FCF7E4FEBC
:103420006846FFF73AFB3EA0FFF737FB2E480068DF
:1034300001F082F8044622460B4636A16846FCF7A6
:10344000D3FE6846FFF729FB34A0FFF726FB25488B
:10345000006801F071F8044622460B462DA168462B
:10346000FCF7C2FE6846FFF718FB2DA0FFF715FB1F
:103470001F48006801F060F8044622460B4625A16B
:103480006846FCF7B1FE6846FFF707FB23A0FFF78D
:1034900004FB1648006801F04FF80446224647E056
:1034A00034000020E00000205400002039000020FB
:1034B000380000200C0C0140E4000020EC0000204B
:1034C0005C00002058000020640000206000002004
:1034D0006C00002068000020F80000209800002008
:1034E00094000020A00000209C000020A8000020E4
:1034F000A40000200401002070030020DC00002054
:10350000D0000020D4000020D800002041434345D3
:103510004C3A2000252E3166000000002F000000EC
:103520003B200000202000004D41474E3A20000083
:103530000B46AFF220016846FCF756FE6846FFF7DF
:10354000ACFAAFF22000FFF7A8FA1DA0FFF7A5FA2A
:103550001D48006800F0F0FF044622460B461BA100
:103560006846FCF741FE6846FFF797FAAFF2540051
:10357000FFF793FA1748006800F0DEFF0446224682
:103580000B4612A16846FCF72FFE6846FFF785FA46
:10359000AFF27800FFF781FA0F48006800F0CCFF27
:1035A000044622460B4609A16846FCF71DFE684604
:1035B000FFF773FA09A0FFF770FA00BF05B030BD3E
:1035C0004759524F3A200000D0000020252E326685
:1035D00000000000D4000020D80000200D0A0000E8
:1035E00010B51D48007888B30520FEF767FD1B491C
:1035F0000520FFF7CFF81A480068401C18490860FA
:1036000008460068032810DB002008601249087093
:103610001449087000F088FB0520FEF74FFD4FF4B9
:103620007A710420FFF7B6F814E00F48006820F420
:1036300080700D4908604FF4FA70FDF79DFF0A484D
:10364000006840F480700849086003E0FFE700204C
:103650000349086010BD0000E0000020E093040072
:10366000E4000020540000200C0C014010B522485A
:10367000007800283CD00520FEF720FD1F490520DA
:10368000FFF788F81E48006820F480701C49086025
:103690004FF4FA70FDF770FF1948006840F480702D
:1036A0001749086017480068002824DD154800689D
:1036B000401E144908600846006810B900F020FA5E
:1036C0000EE010480068012804D100F0C1FA00F0B3
:1036D000A1FA05E00B480068022801D100F09AFA2F
:1036E000002009490860094908604860886002E0D4
:1036F00000200449086010BDE0000020E0930400B1
:103700000C0C0140E4000020DC00002070030020CD
:1037100010B5012034490870FEF754F83348FDF71E
:10372000CDFF33493148FEF713F832492F48001DC9
:10373000FEF70EF82E492D480830FEF709F82D49FE
:103740002A480C30FEF704F8294928481030FDF7C4
:10375000FFFF284925481430FDF7FAFF2449234884
:103760001830FDF7F5FF234920481C30FDF7F0FF26
:103770001F491E482030FDF7EBFF1E491B4824302F
:10378000FDF7E6FF1A4919482830FDF7E1FF19490E
:1037900016482C30FDF7DCFF002114483030FDF7CF
:1037A000D7FF002111483430FDF7D2FF00210F4828
:1037B0003830FDF7CDFFFDF7C1FF00F0A1F9002083
:1037C0000D4908600D490860486088600C49086030
:1037D0000420FEF773FC32210420FEF7DBFF0949C9
:1037E0000520FEF7D7FF10BDE0000020007C000898
:1037F0000000FA460018F6C6DC0000207003002026
:10380000E4000020E09304004FF074500149086088
:1038100070470000240000200148024908607047FA
:1038200035788E3D2C000020014802490860704721
:103830000AD7233C2800002086B001A8FEF7ECFC44
:103840004FF47A710198B0FBF1F4B4F1807F00D3AA
:1038500011E024F07F40401E4FF0E02148610F212D
:103860004FF0FF30FEF794FC00204FF0E02188611C
:103870000720086100BF0021481EFEF789FCFFF702
:10388000C3FFFFF7D1FFFFF7C7FFFEF701F9894834
:10389000006820F4807087490860FDF743FDFEF75B
:1038A000A9F9FDF74EFEFEF71DFCFEF781F9142085
:1038B000FDF762FEFDF7A6FF4FF4E130FFF772F867
:1038C00000F01EF94FF47A710420FEF763FF794887
:1038D000006840F4807077490860FEF7F9FE142014
:1038E000FFF722F84FF47A710620FEF753FF01210B
:1038F0000820FEF74FFF41F288310920FEF74AFF0A
:10390000D6E06D48806800F4004018B900206B498B
:10391000087002E00120694908706948006800F4F5
:10392000807018B100206749087002E001206549E5
:1039300008706548008800F4807058B162480068DB
:1039400020F480706049086001210820FEF722FF02
:10395000FFF7A6FB5C48007800F0020008B35B4864
:103960000078F0B95848006820F002005649086015
:1039700014210120FEF70EFF5548006800F0DCFD21
:103980000646544A544B00F099FA044600F064FA93
:103990004F49086000F0ACF84848007808B1FEF7DD
:1039A00093FD4948007800F0400008B3464800689D
:1039B00020F04000444908604FF47A710620FEF779
:1039C000E9FEFEF7CFF845490860454943480068DD
:1039D00000F08AFF03D201204249087008E0424902
:1039E0003E48006801F080F802D200203D4908708E
:1039F0003548007800F01000002859D0324800689F
:103A000020F01000304908603648007858B14FF473
:103A100096710420FEF7BEFE2648006880F4807090
:103A20002449086044E02548007810BB2748007806
:103A3000F8B92E48007858B94FF4FA610420FEF71F
:103A4000A9FE1C48006840F480701A49086009E02B
:103A500064210420FEF79EFE1648006820F4807062
:103A6000144908602148007880F001001F4908705F
:103A70001EE01248007870B11448007858B94FF42D
:103A80007A710420FEF786FE0A48006880F4807090
:103A9000084908600CE00D48007848B13221042044
:103AA000FEF778FE0348006880F4807001490860E2
:103AB00027E700000C0C0140001001401C00002012
:103AC000080801401E00002034000020E000002013
:103AD000300000207B14AE47E17A943F20000020A4
:103AE000333353401F000020999959401D00002096
:103AF00010B5FEF72BFCFEF7FBFBFEF755FC10BDE7
:103B000010B53448FDF75AFE044633480460314886
:103B1000001DFDF753FE0446304804602D48083070
:103B2000FDF74CFE04462E4804602A480C30FDF791
:103B300045FE04462B48046026481030FDF73EFE43
:103B400004462948046023481430FDF737FE044634
:103B5000264804601F481830FDF730FE044624480C
:103B600004601C481C30FDF729FE0446214804600F
:103B700018482030FDF722FE04461F48046015480F
:103B80002430FDF71BFE04461C4804601148283011
:103B9000FDF714FE04461A4804600E482C30FDF769
:103BA0000DFE0446174804600A483030FDF706FE53
:103BB00004461548046007483430FDF7FFFD04460D
:103BC0001248046003483830FDF7F8FD04461048F9
:103BD000046010BD007C0008580000205C0000203C
:103BE0006000002064000020680000206C000020BD
:103BF00094000020980000209C000020A0000020DD
:103C0000A4000020A8000020D0000020D400002044
:103C1000D800002010B50A48FDF7D0FD0446094839
:103C200004600748001DFDF7C9FD0446064804600E
:103C300003480830FDF7C2FD04460448046010BD87
:103C4000307C0008D0000020D4000020D8000020E4
:103C500010B51548FDF7B2FD04461448046012483B
:103C6000001DFDF7ABFD0446114804600E48083006
:103C7000FDF7A4FD04460F4804600B480C30FDF727
:103C80009DFD04460C48046007481030FDF796FD82
:103C900004460A48046004481430FDF78FFD0446CA
:103CA0000748046010BD0000187C00089400002044
:103CB000980000209C000020A0000020A40000200C
:103CC000A800002010B500241EE0114951F824007E
:103CD0001049096800F03CFE0D4941F824000E49E6
:103CE00051F824000D49096800F032FE0A4941F8F4
:103CF00024000B4951F824000A49096800F028FE05
:103D0000074941F82400641C032CDEDB10BD0000D1
:103D1000040100202C000020EC00002024000020E2
:103D2000F80000202800002010B5FDF74BFD2F48BB
:103D3000FDF7C4FC2E4801682C48FDF709FD2D480D
:103D400001682A48001DFDF703FD2B48016827483C
:103D50000830FDF7FDFC2948016824480C30FDF7C8
:103D6000F7FC2748016821481030FDF7F1FC254891
:103D700001681E481430FDF7EBFC234801681B481E
:103D80001830FDF7E5FC2148016818481C30FDF7A4
:103D9000DFFC1F48016815482030FDF7D9FC1D489D
:103DA000016812482430FDF7D3FC1B4801680F4816
:103DB0002830FDF7CDFC194801680C482C30FDF780
:103DC000C7FC1748016809483030FDF7C1FC1548A9
:103DD000016806483430FDF7BBFC1348016803480E
:103DE0003830FDF7B5FCFDF7A9FC10BD007C0008DC
:103DF000580000205C0000206000002064000020CB
:103E0000680000206C000020940000209800002032
:103E10009C000020A0000020A4000020A80000209A
:103E2000D0000020D4000020D800002010B50029C8
:103E30000AD00878002807D005487844FCF762FECD
:103E4000002801D0002010BD0248784410BD0000B9
:103E5000B60E0000AE0E000021F00042A2F160524A
:103E6000B2F5801F01F0004328BFD2F17F6C0BD95F
:103E70005FEA001C43EAC20242EB507018BF704771
:103E800028BF20F001007047B2F5801FBCBF184664
:103E900070474FEA410C1CF5001F02D2084600F0A3
:103EA0001EBE70B500F00AFA00000089FFF7F6BFE9
:103EB0004FF00040A0F580007047000010B591EA77
:103EC000030F48BF83F0004300F15482841A71EB62
:103ED000030C05D2121943EB0C03001B61EB0C0120
:103EE000DFF824E14FEA1154A4EB135C1EEA430F00
:103EF00018BF9EEA445F73D023EA0E03DCF1200E64
:103F000021EA045143F4801332D322FA0CFE10EB61
:103F10000E0023FA0CFE41EB0E01CCF1200E03FA49
:103F20000EFE10EB0E0051F10001B1F5801FCCF137
:103F3000200E32D201EB045112FA0EF2BDE810400D
:103F400058BF7047401C38BF5FEA420218BF704735
:103F5000002814BF20F0010041F100014FEA4103A5
:103F600013F5001F38BF7047A1F1C04100F0F4B94C
:103F7000012A43EB0302ACF1200CDCF11F0E32BF2F
:103F80004FF0000E23FA0CF310EB030041EB045149
:103F9000B4EB115FD0D0A1EB045101F580114908B9
:103FA0005FEA300001EB04510ED350F1000038BF3E
:103FB00012FA0EFE08D1BDE81040C9E7401C38BF18
:103FC0005FEA4202CAD1C3E7BDE810404FEA4103AD
:103FD00013F5001F38BF7047A1F1C04100F0BCB914
:103FE0009EEA445F08D011EA5E0FBDE8104004BFAE
:103FF00001F0004100207047BDE8104070B500F0AE
:104000005DF900BF64FBBE3E0000E0FF2DE9C0414A
:1040100030B4DFF8A0C23CEA111418BF3CEA131414
:1040200000F0EC8081EA03051CEA111444EAD5741F
:1040300018BF1CEA131500F0C780A4EB05044FF06D
:10404000004545EAC12145EAC32341EA505143EA0C
:10405000525304F17F74994204F500344FEAC020B2
:104060004FEAC22208BF904200F09C804FEA1365DD
:104070000FF24016765D4FEA134506FB05F7C7F1D0
:10408000807706FB07F74FEAD737A7FB036876422E
:10409000C8F58038A7FB06CE38BFA8F1010807FB9A
:1040A00008E64FF0000EA6FB028CE6FB03CEDCF127
:1040B000000CCEF1004E38BFAEF1010EA6FB0C583D
:1040C0004FF000074FF00005E6FB0E87A1FB08C686
:1040D000A0FB07CE16EB0E0645F10005E1FB0765D8
:1040E00015F1E04E7EBFA4F580345FEA46066D41CF
:1040F00016F1800745F100054FEA17274FEA0666DB
:1041000047EA0567A6F1DE46B6F1805F4FEA15255E
:104110001FD9384624F0010C05EBC471BCF1FE6FC9
:1041200001EB0C1102D8F0BCBDE8008124425CBF59
:1041300001F5801E9EEAC47F02D4F0BCBDE8008178
:10414000244238D4F0BCA1F1C041BDE8004100F0E8
:1041500003B94FEAD22242EA43524FEAD323A7FBE4
:1041600002864FEAD02040EA415007FB03661EEA70
:104170000E0F4FEAD12105FB026658BFA6EB005691
:10418000B6EB00564FEA520E4EEAC37E18EB0E0E07
:1041900056EB530EBDD518EB02085E417F1C55F15E
:1041A0000005B6E74FF480154FF000074FF000060A
:1041B0004FF00008ADE7F0BC4FF0000001F1C04146
:1041C00001F00041BDE8008111EA0C1F0CEA131553
:1041D00000D00CE013EA0C1F00F025804FF0000027
:1041E000F0BC81EA030101F00041BDE80081F0BCB0
:1041F000BDE8004181EA030100F0AEB8F0BCBDE8C3
:10420000004170B500F05AF8097EFC3E00F007B896
:1042100081EA03014FF0000001F00041704781EA9C
:10422000030100F099B8F0BCBDE800414FF0000078
:1042300021497047FFFDFBF9F7F5F4F2F0EEEDEBE5
:10424000E9E8E6E4E3E1E0DEDDDBDAD8D7D5D4D394
:10425000D1D0CFCDCCCBCAC8C7C6C5C4C2C1C0BFE0
:10426000BEBDBCBBBAB9B8B7B6B5B4B3B2B1B0AFE6
:10427000AEADACABAAA9A8A8A7A6A5A4A3A3A2A1CA
:10428000A09F9F9E9D9C9C9B9A9999989797969585
:1042900095949393929191908F8F8E8E8D8C8C8B21
:1042A0008B8A8989888887878685858484838382A9
:1042B000828181800000FF070000F87F0EF1020E6E
:1042C0002EF0030E5EF8046B364205D4012A43EB50
:1042D000030515F5001F12D8012841EB010C1CF550
:1042E000001F0CD80ED14FEAD17C15F5001F0CEB46
:1042F0004C0C0CF1020C08BF4CEBD37C04E04FF0EB
:10430000080C01E04FEAD37C0CEB4C0526FA05F6CD
:1043100006F00706B6F1040C06D20EEB860CBDE8DB
:1043200070404CF0010C6047DFE80CF0090B020212
:104330004FF000414FF00000A1F5002170BD19467B
:104340001046012851EB010418BFD4F5001484BFB6
:10435000002001F0004170BD0808A0F500114FEAEF
:104360003101704710B591EA030F48BF83F0004355
:104370003FF5ACAD841A71EB030C07D212198CF027
:10438000004C43EB0C03001B61EB0C01DFF8A4E1D4
:104390004FEA1154A4EB135C1EEA430F18BF9EEAC8
:1043A000445F00F0B08023EA6E03524221EA0451D8
:1043B000C3EB6E0338BF5B1EDCF1200E25D322FA5F
:1043C0000CFE10EB0E0043FA0CFE41EB0E01CCF19B
:1043D000200E03FA0EFE10EB0E0051F10001CCF19D
:1043E000200E29D412FA0EF201EB0451BDE8104060
:1043F00058BF7047401C1CBFB2F1004F70470028E7
:104400000CBF491C20F00100704712EB020E43EB79
:10441000030218BF4FF0010E4EEA4202ACF1200C2D
:10442000DCF11E0E54D943FA0CFE10EB0E0051F1D4
:10443000FF31CCF11E0ED5D50EF1010E12FA0EFE93
:10444000404141EB010101EB445C5FEA5C5C10D947
:1044500010EBDE7001EB045138BFBEF1004FBDE838
:10446000104018BF704700280CBF491C20F0010005
:10447000704730D24FEAD42C11F5001124F40064B7
:104480001BD0B1FA81F20B3AA41AA41ED2F1200378
:10449000914030FA03F31943904001EBCC71002CAA
:1044A00001EB0451BDE81040A8BF704701F1C041C5
:1044B0004FF0000001F000417047B0FA80F310FAAD
:1044C00003F100D110BDE41A173C4805C90AE4E71E
:1044D00001EB045110BD491001EB0451BDE810403F
:1044E0004FEA300002E04FF0000170474A0008BF79
:1044F0000042F8D0B2F5001F28BF704701F000411C
:104500004FF0000070479EEA445F07D011EA5E0F4B
:10451000BDE8104004BF002100207047BDE81040F6
:1045200070B5FFF7CBFE00BF40DFF63E83F00041E1
:10453000104670470000E0FF43004FEAD30C4FEAFB
:104540003C0C43401FBF40070CF1605113F0FE4F7D
:1045500070471CF0006F03D100200CF00041704741
:104560000CF0004343EA507010B540EACC0000F074
:1045700070FA00BF000000924FEA0001FFF7ECBEA6
:104580004FF000414FF00000A1F5002170470000FE
:1045900090EA010F48BF81F0004100F1DE82421A2B
:1045A0003CBF801A89184FEAD0524FF07F4C1CEA6A
:1045B000410FA2EBD15318BF9CEA026F00F03B8081
:1045C0004FF0004C4CEA00204CEA012121FA03FC98
:1045D00010EB0C0C1ED202F1FF325FEA1C2040EB04
:1045E000C25038BF70471CF07F0F4FEA400C18BF15
:1045F000BCF17F4F38BF7047C3F12003994008BF1B
:1046000020F00100BCF17F4F38BF7047A0F1C040DF
:1046100000F065BA4FEA3C00000A40EBC25028BFE8
:104620001CF0FF0F4FEA400CE6D018BFBCF17F4FE3
:1046300038BF7047EAE79CEA026F05D010EA5C0FCA
:1046400008BF00F00040704710B500F002FA00BF4C
:1046500064FBBE3E401058BFC0F14040491058BFF7
:10466000C1F140418142EFF3008070474FF47F0C6D
:104670001CEAD0121EBF1CEAD11392EA0C0F93EA77
:104680000C0F00F0858090EA010F48BF42F4807261
:1046900040F4000C41F400002CF07F4120F07F40FA
:1046A00000B58142A2EB03020FF2081CACEB504EA6
:1046B000C0F100009EF800E04FEA4E0E00FB0EFC39
:1046C00038BF49004FEA2C1C02F5FA020CFB0EF32E
:1046D0004FEACE1E4FEA112C4FEAC1210EEB635E6A
:1046E00042EB22420EFB0CFC4FEA1C5300FB031171
:1046F0004FEA112C4FEA01310EFB0CFC4FEADC4C67
:1047000000FB0C11C14228BF09184CEB03335DF8C4
:1047100004EB10EB410143EBC250B2F57C0F38BF04
:10472000704729D512F0F00F1CBF00F1C04000F017
:1047300000407047008182838485868788898B8CBE
:104740008D8E8F919293959697999A9C9D9FA0A2FA
:10475000A3A5A7A8AAACAEB0B2B3B5B7B9BCBEC04A
:10476000C2C5C7C9CCCED1D4D7D9DCDFE2E6E9ECEB
:10477000F0F3F7FAFE0000004FEA400C0CF1807CE9
:10478000BCF17E4F28BF7047B0F1C04000F0A7B920
:1047900090EA010F0CEAD11348BF42F480726245DF
:1047A00038BF634507D213F47F0F16D080EA0100AB
:1047B00000F00040704710B500F04BF9097EFC3E58
:1047C00000F005B880EA010000F00040704780EA80
:1047D000010000F0004000F082B912F47F0F04BF26
:1047E0000248704780EA010000F079B90000C07FFC
:1047F00050EA010C00F113801CF5000F58BFBCF506
:10480000000F01D48842704707D710F5000F58BF3A
:1048100011F5000F15D488427047894270471CF586
:10482000000F04D5BCF5000FF7D5814270474FF05B
:10483000807C1CEB400F38BF1CEB410F01D2814242
:10484000704710B500F005F9922449004FF0005070
:104850004FF08051FFF7FEBE41000B0ED3F19E02D8
:1048600008D950F400034FEA032323FA02F048BFAB
:104870004042704710B500F0ECF800BF4992248028
:10488000002070476FF0004282EA2000704700006D
:1048900010F0004148BF4042B0FA80F310FA03F232
:1048A000C3F19D030BD051EAC35101EB1220530613
:1048B00038BF704700F1010008BF20F001007047C9
:1048C000B0FA80F310FA03F2C3F19D030AD0D905C0
:1048D00001EB1220530638BF704700F1010008BFFA
:1048E00020F001007047000050EA010C00F1138035
:1048F0001CF5000F58BFBCF5000F01D4884270476B
:1049000007D710F5000F58BF11F5000F15D48842D6
:104910007047894270471CF5000F04D5BCF5000FA5
:10492000F7D5814270474FF0807C1CEB400F38BFB9
:104930001CEB410F01D28142704710B500F089F89D
:10494000922449004FF000504FF08051FFF782BE93
:104950004FF47F0C1CEAD0121EBF1CEAD11392EA5E
:104960000C0F93EA0C0F00F0478090EA010F48BF4C
:1049700042F480724FF0004C4CEA00204CEA0121D6
:1049800002EB0302A0FB0113A2F50002002918BFED
:1049900043F001035B0028BF4FEA330342EB22429E
:1049A0005FEA132C4CEBC2502EBFBCEB436FB2F549
:1049B0007C0F70474FEA036CBCF1004F08BF20F03A
:1049C0000100B2F57C0F38BF70470BD582F0FF02B3
:1049D00012F5803FC8BF704700F1C040D8BF00F05B
:1049E0000040704700F5000C5FEA4C0C48BF704770
:1049F000B0F1C04000F073B890EA010F0CEAD11397
:104A000048BF42F48072624538BF634504D280EAF1
:104A1000010000F00040704710B500F01AF800BF28
:104A20008900013E00F007B800F009B85FEA410CC8
:104A30005FEA1C6C08D080EA010000F050B85FEA21
:104A4000400C5FEA1C6CF6D14FF00040A0F58000EE
:104A500070470EF1020E2EF0030E5EF8044B244256
:104A600004D44FEA4102B2F17F4F11D84FEA40031C
:104A7000B3F17F4F0CD80ED14FEAD07CB2F17F4F0B
:104A80000CEB4C0C0CF1020C08BF4CEBD17C04E09D
:104A90004FF0080C01E04FEAD17C0CEB4C0324FAF8
:104AA00003F404F00704B4F1040C06D20EEB840CFA
:104AB000BDE810404CF0010C6047DFE80CF007083F
:104AC00002024FF00040A0F5800010BD08464200F1
:104AD00018BFD2F1807288BF00F0004010BDFF21E6
:104AE00041EAD050C005704751EA000C00F1138034
:104AF0001CF5000F58BFBCF5000F01D48142704770
:104B000007D711F5000F58BF10F5000F15D48142DB
:104B10007047894270471CF5000F04D5BCF5000FA3
:104B2000F7D5884270474FF0807C1CEB410F38BFAF
:104B30001CEB400F01D28842704780EA010081EAF5
:104B4000000180EA0100FFF7F8BE000090EA010FC3
:104B500048BF81F000413FF522AD421A04D882F0EF
:104B60000042A0EB020011444FEAD0524FF07F4CBC
:104B70001CEA410FA2EBD15318BF9CEA026F4AD046
:104B80004FF0004C4CEA00204CEA012121FA03FCD2
:104B9000B0EB0C0C0FD412F0FE0F36D05FEA4C00D5
:104BA0001DD5001240EBC25038BF70471CF03F0FBC
:104BB00018BF70470BE0A2F101025FEA1C2040EB36
:104BC000C25038BF70471CF07F0F18BF7047C3F149
:104BD0002003994014BF401E20F001007047800858
:104BE0004FEA122308BF7047B0FA80FCA2EB0C0218
:104BF000CCF1280C60FA0CF093EA122F04BF00EB02
:104C0000C25070474FEAC3707047130A5FEADC1066
:104C100008BF7047F6E79CEA026F04D010EA5C0F09
:104C200008BF0020704710B5FFF713FF40DFF63EC6
:104C300081F000407047FBF7E3BC00000240000039
:104C4000000000A00000000005400000000000C8B7
:104C5000000000000C4000000000409C000000002C
:104C6000194000000020BCBE0000000034400000DD
:104C7000BFC91B8E00000004B5400000504BCFD0D0
:104C80006607E2CF010000006C4100003E8251AA9D
:104C9000DFEEA73401000000D9420000DCB5A0E23D
:104CA0003A301F97FFFFFFFFB4450000FD25A0C865
:104CB000E9A3C14FFFFFFFFFFF3F0000000000809E
:104CC00000000000FF3F0000000000800000000026
:104CD0000C4D000800000020EC0000002801000836
:104CE000F84D0008EC0000201413000044010008F7
:104CF0001C00000043000000F8FFFFFF0C00000054
:104D00000E0000000F0000002E0000000000000058
:104D1000010203040102030406070809020406084D
:104D20000000000000000000000000000000000083
:104D30000000000000000000000000000000000073
:104D40000000000000000000000000000000000063
:104D5000802500000096000000C201000000000055
:104D6000000000000000FA460018F6C60000FA46EF
:104D70000018F6C60000FA460018F6C6000000004B
:104D80000000000000000000000000000000000023
:104D90000000000000000000000000000000000013
:104DA0000000FA460018F6C60000FA460018F6C6DB
:104DB0000000FA460018F6C60000000000000000DF
:104DC00000000000000000000000000000000000E3
:104DD00000000000000000000000000000000000D3
:104DE00000000000000000000000000000000000C3
:084DF0000000000000000000BB
:04000005080000ED02
:00000001FF
