:020000040800F2
:1000000048150020E9010008F1010008F30100088B
:10001000F5010008F7010008F901000800000000E0
:10002000000000000000000000000000FB010008CC
:10003000FD01000800000000FF010008792E000803
:10004000030200080302000803020008030200087C
:10005000030200080302000803020008030200086C
:10006000030200080302000803020008030200085C
:10007000030200080302000803020008030200084C
:10008000030200080302000803020008030200083C
:100090000302000803020008030200087D1900089B
:1000A000030200080302000803020008030200081C
:1000B0000302000803020008492F00080302000899
:1000C00003020008030200080302000803020008FC
:1000D0000302000899310008030200080302000827
:1000E00003020008030200080302000800F002F8FF
:1000F00000F06AF80AA090E8000C82448344AAF158
:100100000107DA4501D100F05FF8AFF2090EBAE855
:100110000F0013F0010F18BFFB1A43F0010318473B
:10012000DC6B0000FC6B00000A444FF0000C10F880
:10013000013B13F0070408BF10F8014B1D1108BF65
:1001400010F8015B641E05D010F8016B641E01F805
:10015000016BF9D113F0080F1EBF10F8014BAD1C55
:100160000C1B09D16D1E58BF01F801CBFAD505E073
:1001700014F8016B01F8016B6D1EF9D59142D6D3CD
:10018000704700000023002400250026103A28BFF5
:1001900078C1FBD8520728BF30C148BF0B607047F9
:1001A000662906F0D883642900F052800020704749
:1001B0001FB500F011FC04000020002105F0BEFA7C
:1001C000E0601FBD10B510BD00F00AFD1146FFF73D
:1001D000EFFF04F0E3FE00F028FD03B4FFF7F2FFA9
:1001E00003BC00F06BFD0000094880470948004748
:1001F000FEE7FEE7FEE7FEE7FEE7FEE7FEE7FEE7D7
:10020000FEE7FEE704480549054A064B7047000033
:10021000E92E0008ED0000084805002048150020E0
:10022000480D0020480D00200FB41CB5074B06AA4E
:100230007B4469460090059800F08FFB00206946DA
:1002400000F09EFB1CBC5DF814FB00004D07000095
:100250002DE9F0410646002410687529314616A59F
:1002600010D0AFF30080002802DA404213A507E067
:1002700031688A0701D512A502E0490704D511A506
:10028000012401E0AFF3008000210A2206F12407D7
:1002900009E0B0FBF2FCB0FBF2F302FB1C003030D3
:1002A00078541846491C0028F3D123462A46304684
:1002B000BDE8F04100F0E3B8000000002D000000B0
:1002C0002B000000200000002DE9F0474FF0000A4D
:1002D00089460446C0F820A02046E16888470028E7
:1002E00076D0252806D0D4E901219047206A401C09
:1002F0002062F1E7E168204600258847C4F81CA089
:1003000006460027C4F818A02A2E09D0304603F06C
:1003100015FC38B304EB8708303EC8F8186019E0C4
:1003200059F8041B204604EB87029161E168884775
:10033000012F064618D1E069002820DA25F02005B3
:100340001DE0D8F8180000EB800006EB40003038C4
:10035000C8F818002046E1688847064603F0EEFB1F
:100360000028EED1012F0AD02E2E08D12046E168B8
:1003700088477F1C0646022F45F02005C4DBA06994
:10038000002803DA404245F00105A061E80701D0EA
:1003900025F01005B6B1A6F14100192802D8203683
:1003A00045F400654A463146204625604D46FFF734
:1003B000F7FE58B1012806D0ED1D25F0070000F129
:1003C000080989E704E005F1040985E730468AE772
:1003D000206ABDE8F08740EA0103024630B59B077A
:1003E00010D14FF0013400E008C208C91D1B9D4325
:1003F00015EAC41FF8D013F0FF0102F8011B0DD05D
:100400001B0AF8E711F8013B002B02F8013B05D06D
:1004100011F8013B002B02F8013BF3D130BD4FF046
:1004200000020429C0F0128010F0030C00F0AF822B
:10043000CCF1040CBCF1020F18BF00F8012BA8BFCF
:1004400020F8022BA1EB0C0100F0A1BA5FEAC17CFD
:1004500024BF00F8012B00F8012B48BF00F8012B46
:10046000704770477047704710B500F0B9FA0068E0
:1004700010BD10B5044600F0B3FA046010BD2DE9BC
:10048000F0470D4699469246044600F1240801685B
:10049000880604D5E06921F01001216000E0012008
:1004A000A84201DD471B00E00027A1697A1902EB91
:1004B0000900081AA0612078C00602D42046AFF3D4
:1004C0000080002608E0D4E901211AF806009047D0
:1004D000206A401C761C20624E45F4DB2078C00662
:1004E0000AD52046AFF3008006E0D4E90121302090
:1004F0009047206A401C2062381EA7F10107F4DCF7
:1005000007E0D4E9012118F805009047206A401C53
:100510002062281EA5F10105F3DC2046AFF3008020
:100520002078000602D50220BDE8F0870120FBE715
:1005300070472DE9FF4F0C461E464FF0FF378BB03A
:10054000D2E90001DDF860800A908A46C1F30A55BD
:1005500005B93D46002108464FF00000BAF1000FF2
:1005600000F4400005DA00EB80004FF4400101EA9E
:1005700050004FEA9059B9F1010F00DDB9460A98D1
:1005800050EA4A000ED044F61050A5F2FF3545431C
:100590002F14B8F1000F1ED07542291E1EDDC9F1BF
:1005A00000021CE0B8F1010F4FF0000001D0302133
:1005B00003E0F24305E02154401CB042FBDB30462F
:1005C0000022002121540B99C1F80880C1E90020C4
:1005D0000FB0BDE8F08FBD1B6D1CDEE74A4600DAA8
:1005E000694206A800F086FA06AB93E8070003AB61
:1005F00083E8070050460A9900F067FB8DE8070082
:10060000A0F500501F3800900398002D0ADD42F23B
:100610001F014A460844002303A90390684600F0DE
:10062000D0FD09E0A0F500504A461F38002303A979
:100630000390684600F0DAFD8DE807000004000C26
:1006400003D04FF0FF30410800E01046B8F1000F32
:1006500003D00022009215461EE0751E05D400F05E
:10066000C3F9303262556D1EF9D5B34601220843F5
:1006700002D000227F1C04E02078302801D1002223
:100680007F1E002A099784D01DE0112D07DA00F0A3
:10069000ABF9303262556D1C50EA0102F5D10843C6
:1006A00002D00098C8B10EE00021681E05E0235C6E
:1006B000625C63542254401E491C8142F7DBAB4606
:1006C000A81B401E0990002004F80B000B98099A03
:1006D000C0F80880C0E9002B7AE711264FF0000827
:1006E00057E72DE9F04F88460446D21D22F0070156
:1006F00091B0D1E90001CDE90A0102F0E9FE02461C
:100700000B98C00F01D02D2007E02068810701D58C
:100710002B2002E0202101EAC000032A099001D029
:10072000072A05DB03464146204600F0A3F90BE10A
:100730002078800601D5E06900E00620B8F1650F59
:10074000814606D0B8F1660F18D0B8F1670F70D1A6
:1007500031E00020B9F1110F009001DB112301E01D
:1007600009F101030AAA01A90CA8FFF7E2FEDDE9DD
:100770000C70002609F10105834647E001204B4635
:1007800000904FF000470AAA01A90CA8FFF7D1FE7C
:10079000DDE90DB00C995D46002610B909F10100A4
:1007A0000D18B9EB050003D4C0F1FF3609F10105BE
:1007B000A5EB09002BE0B9F1010F01DA4FF00109B7
:1007C0000020B9F1110F0090484601DD112300E02F
:1007D00003460AAA01A90CA8FFF7ABFEDDE90C70DD
:1007E0004D4600268346207800070AD4AB4500DA40
:1007F0005D4601A8012D04DD411911F8011C3029C5
:1008000007D04F4502DA17F1040F04DA01208246BF
:100810000FE06D1EEEE7002F02DCED1B3E4403E00F
:10082000781CA84200DD7D1CB81B00F1010A4FF0C6
:1008300000472078000703D4AA4501DB4FF0FF3AB8
:100840000021B7F1004F0DF143088DF8431024D07B
:1008500002202B23002F01DA7F422D230A21021EC2
:10086000A0F1010000DC5FB197FBF1FC97FBF1F216
:1008700001FB1C7C17460CF1300C08F801CDEEE7AB
:10088000A8F1010003702188090501D5452100E088
:100890006521A0F1010800F8011C09980FA9A1EB3E
:1008A0000807FF1D00B10120411901EBEA70A169A1
:1008B0003844081A401EA0612078C00602D42046A1
:1008C000AFF30080099828B1D4E901219047206A4C
:1008D000401C20622078C00622D52046AFF300805D
:1008E0001EE0002E04DBB34502DD01A8805D00E0C0
:1008F0003020D4E901219047206A401C2062761CF8
:10090000AAF101005FEA000A0AD100F065F8C068A8
:100910000168405CD4E901219047206A401C2062B4
:10092000281EA5F10105DCDC07E0D4E9012118F857
:10093000010B9047206A401C2062381EA7F1010776
:10094000F3DC2046AFF30080032011B041E6000045
:1009500001694A1C02610878704700B58FB0CDE983
:1009600001310021059105497944CDE90310114673
:100970006846FFF7A9FC0FB000BD0000E5FFFFFFD0
:100980000A6802F8010B0A6070474FF0000200B5D8
:10099000134694469646203922BFA0E80C50A0E8A2
:1009A0000C50B1F12001BFF4F7AF090728BFA0E850
:1009B0000C5048BF0CC05DF804EB890028BF40F81C
:1009C000042B08BF704748BF20F8022B11F0804F5E
:1009D00018BF00F8012B704700487047040500203D
:1009E00000487047E404002030B5B0F10A024FEA35
:1009F000900E71F100034EEA817EB0EB0E0061EBC8
:100A000091014FEA101E4EEA017E10EB0E0041EB01
:100A100011114FEA102E4EEA016E10EB0E0041EB61
:100A200011214FEA104E4EEA014E10EB0E0041EB41
:100A30001141401841F100014FEAD00040EA4170F5
:100A40004FEAD10110EB80054FEA810444EA90742B
:100A500044EB01046D1944EB0404521BA3414FF015
:100A6000000348BF0A3200D530BD401C41F10001EF
:100A700030BD00002DE9F0411F4604460326016801
:100A8000072A01F4006004DB08B116A505E016A5ED
:100A900003E008B115A500E015A521F010002060C5
:100AA000A069C01EA0610FB1401EA0612046AFF337
:100AB00000804FB1D4E9012138469047206A401C9C
:100AC0002062C01C206206E0206AFAE7D4E9012116
:100AD00015F8010B9047761EF8D22046AFF3008040
:100AE000BDE8F0814E414E006E616E00494E4600F9
:100AF000696E66002DE9F047814616468AB0354892
:100B000078440DC88DE80D0032487844801C03AC51
:100B10000DC884E80D0041F69B300844372190FB56
:100B2000F1F290FBF1F5A5F1800501FB12041B3CED
:100B300002D56442012000E00020DFF898A0804642
:100B40000027FA44AAF1BE0A0EE0E0070AD03246B6
:100B5000684607EB470101230AEB810100F046FBE1
:100B60008DE8070064107F1C002CEED1194F7F44E4
:100B7000AE3F19E0E80715D007EB04100DF1180A95
:100B800090E80E008AE80E00C068F04201D1981982
:100B900008903246012306A903A800F027FB03AB07
:100BA00083E807006D10641C002DE3D14FF00103B2
:100BB00032466946B8F1000F03A802D000F001FBED
:100BC00001E000F013FBC9E90001C9F808200AB0F0
:100BD000BDE8F087E061000000487047E4040020B1
:100BE0007546FFF7F9FFAE4605006946534620F00B
:100BF0000700854618B020B5FFF704FBBDE820408C
:100C00004FF000064FF000074FF000084FF0000BC8
:100C100021F00701AC46ACE8C009ACE8C009ACE87B
:100C2000C009ACE8C0098D46704710B50446AFF363
:100C300000802046BDE81040FFF7CFBA4FF0013CDE
:100C400050F8042B51F8043B9A4221D1A2EB0C033B
:100C5000934313EACC1317D150F8042B51F8043BFB
:100C60009A4215D1A2EB0C03934313EACC130BD198
:100C700050F8042B51F8043B9A4209D1A2EB0C0323
:100C8000934313EACC13DBD04FF00000704700BF52
:100C9000D01A01BAB1FA81F101F0180122FA01F07B
:100CA000CB40C1F12001DBB2C0B2C01A2CFA01F373
:100CB000D11A914311EAC311E6D1704701491820B6
:100CC000ABBEFEE72600020070475FEA400C08BF9B
:100CD00091F0000F4FEA8C234FEAC12243EA5151B1
:100CE0004FEA1C5018BF00F5F0404FEA300018BF23
:100CF00041F000415FEA6C5C00F02980BCF1FF3FED
:100D000008BF40F080407047130C06BF12044FF03C
:100D1000100C4FF0000C130E04BF12020CF1080C63
:100D2000130F04BF12010CF1040C930F04BF9200C7
:100D30000CF1020CD30F04BF52000CF1010C114650
:100D40004FF00002A0F11F00A0EB0C00704711F063
:100D5000004F08BF704731F000413FF4D5AF0B0C96
:100D600006BF09044FF0100C4FF0000C0B0E04BF2F
:100D700009020CF1080C0B0F04BF09010CF1040C63
:100D80008B0F04BF89000CF1020CCB0F04BF49008C
:100D90000CF1010CCCF12003A0EB0C0022FA03F3C0
:100DA00002FA0CF241EA030100F10100704720F061
:100DB0007F4C80EA030023F07F47ACEB070303F589
:100DC0007C5300F0004003F1FF032DE980494FEA16
:100DD000154B09B44FEA144325EA0B4E24EA0348A5
:100DE0000FF2042606EB132749083E785FEA320229
:100DF00003FB0667C7F5000707FB06F64FEA543703
:100E00004FEAD64606F1020607FB066CCCF1005C01
:100E10004FEA1C472CEA074C07FB06F40CFB06F5CF
:100E200004EB15464FEA961634BF00204FF0004001
:100E30004FEAD13706FB07FC4FEA1C4C0CFB0BF7C3
:100E4000D21B03FB0CF761EB07010CFB0EF7B0EBB9
:100E5000074072EB17420CFB08F734BFA2EB0742C6
:100E6000B2EB074261EB17414FEA0C444FEA91079E
:100E700006FB07FC4FEA1C4C0CFB0BF7B0EBC74022
:100E800072EB573203FB0CF734BFA2EBC742B2EB55
:100E9000C74261EB57310CFB0EF7B0EBC70072EBAA
:100EA00057720CFB08F734BFA2EBC702B2EBC702C4
:100EB00061EB5771039F4FEA816141EA921104EBA4
:100EC000CC044FEAD1374FEA826206FB07FC42EAC4
:100ED00090124FEA80604FEA1C4C0CFB0BF7D21BC0
:100EE00003FB0CF761EB07010CFB0EF7B0EB0740BF
:100EF00072EB17420CFB08F734BFA2EB0742B2EBD0
:100F0000074261EB17414FEA8C554FEA910704EB1A
:100F10009C2406FB07FC4FEA1C4C0CFB0BF7B0EBC8
:100F2000C74072EB573203FB0CF734BFA2EBC7424A
:100F3000B2EBC74261EB57310CFB0EF7B0EBC700C9
:100F400072EB57720CFB08F734BFA2EBC702B2EB8F
:100F5000C70261EB577115EB4C254FEA816141EAFD
:100F600092114FEA82624FEAD13742EA901206FBB1
:100F700007FC44F100044FEA80604FEA1C4C0CFB74
:100F80000BF7D21B03FB0CF761EB07010CFB0EF711
:100F9000B0EB074072EB17420CFB08F734BFA2EB33
:100FA0000742B2EB074261EB174115EB1C154FEA04
:100FB000813141EA92414FEA823242EA90424FEA5D
:100FC00080304FEA0C7644F1000448EA03434EEACD
:100FD0000B484FF0000EB2EB080C71EB030724BF77
:100FE000624639464EEB0E0E4FF0000B0018524190
:100FF00049414BEB0B0BB2EB080C71EB03077BF198
:10100000000B24BF624639464EEB0E0E4FF0000B2C
:101010000018524149414BEB0B0BB2EB080C71EB42
:1010200003077BF1000B24BF624639464EEB0E0EE0
:1010300051EA020718BF46F0010616EB0E7655F18D
:10104000000254F1000103D5BDE88901BDE8008824
:10105000BDE88901BDE80048B619524141EB0101E4
:10106000A3F10103704780807F7E7D7C7B7A797855
:10107000777676757473727171706F6E6E6D6C6C5D
:101080006B6A6A69686867666665646463636261FF
:101090006160605F5F5E5E5D5D5C5C5B5B5A5A5980
:1010A00059585857575656555555545453535252EC
:1010B0005251515050504F4F4F4E4E4D4D4D4C4C44
:1010C0004C4B4B4B4A4A4A4949494848484747478D
:1010D00047464646454545444444444343434342CA
:1010E000424242414141002B9C4630D477002BD0F4
:1010F0001CB54FEA370703B44FF010004FF0100152
:10110000BAF1000F06D0BCF1000FDCBF40F00800C0
:1011100040F008014FF000000FBCBDE810400BF19B
:10112000010BBBF1010F08BF5FEA170722BF12F1E5
:10113000010211F101014FF0004143F1000300F001
:10114000004043EA00007047F9D35708D0E746EA69
:10115000064613F1400F4FEA16461FDD13F1200F2C
:10116000DFBF16430A46002120335B42BED0C3F1E5
:10117000200746EA064602FA07F74FEA164646EA0D
:101180000706C3F1200722FA03F201FA07F721FA52
:1011900003F14FF0000342EA0702A7E746EA02061E
:1011A00046EA06464FEA164646EA0106BCBF46EA4C
:1011B0000646360C4FF000034FF000024FF00001DE
:1011C00094E72DE9804C9A46934670B491E8380034
:1011D00007C831EA400C48BF34EA430C03D5FFF797
:1011E000E6FDFFF780FFF0BCBDE8008C2DE9804CE8
:1011F0009A46934670B491E8380007C810F0804FC3
:1012000008BF13F0804F03D100F005F8FFF76BFF24
:10121000F0BCBDE8008C20F07F4780EA030023F09B
:101220007F4C07EB0C03A3F57C5300F00040A3F1C7
:10123000FE0392F0000F00F0B38095F0000F00F075
:1012400077802DE901494FEA11404FEA144621EA1F
:10125000004800FB06FC24EA064708FB06F607FBED
:1012600008F800FB07F718EB06484CEB164C4FEA62
:10127000124B18EB07484FEA15464CEB174022EA91
:101280000B4E0BFB06FC25EA06470EFB06F607FB9A
:101290000EFE0BFB07F71EEB064E4CEB164C4FF009
:1012A00000061EEB074E4CEB174B18EB0B0840F1FA
:1012B000000018EB0E0B58EB000840F100008F1AED
:1012C0004FF000013CBFC943661B14BFB5EB040CD3
:1012D00000213CBFC943F61B4FEA17444EEA8E0E6D
:1012E00027EA04454FEA1C4704FB07622CEA074C37
:1012F00005FB07F70CFB05F604FB0CFC16EB074699
:1013000042EB174216EB0C4642EB1C421BEB060667
:1013100058EB0202414146EA9E0601D5BDE801892B
:10132000B619524141EB0101A3F10103BDE8018966
:101330004FEA14454FEA114724EA054621EA074CD3
:1013400005FB07F406FB07F70CFB06F105FB0CFC9D
:1013500011EB074144EB17444FEA124711EB0C41E4
:1013600044EB1C4422EA074C05FB07F206FB07F797
:101370000CFB06F605FB0CFC16EB074642EB17428E
:1013800016EB0C4642EB1C456A1854F1000148BFAD
:101390007047B619524141EB0101A3F101037047B7
:1013A00095F0000F37D04FEA11424FEA144721EA77
:1013B000024624EA074C02FB07F106FB07F70CFB89
:1013C00006F402FB0CFC14EB074441EB17414FEA17
:1013D000154714EB0C4441EB1C4125EA074C02FB7A
:1013E00007F506FB07F70CFB06F602FB0CFC16EBF9
:1013F000074645EB174516EB0C4645EB1C42121908
:1014000051F1000148BF7047B619524141EB01014B
:10141000A3F1010370474FEA14454FEA114724EA4C
:10142000054621EA074C05FB07F106FB07F70CFB15
:1014300006F24FF0000605FB0CFC12EB074241EBF5
:10144000174112EB0C4251EB1C4148BF70479218F8
:1014500041EB0101A3F10103704710B504460021DF
:10146000204605F0C7F802D284F0004010BD2046A7
:10147000FCE7000000B587B00121480201F016FB2F
:101480000121042001F012FB00208DF81B004020F8
:10149000ADF8180003208DF81A0006A91C4800F0CA
:1014A0002BFD01208DF80900002004904FF46020EE
:1014B00003900020019001208DF8140000208DF889
:1014C000080001A9134800F04BF80121114800F071
:1014D00023F80523012206210E4800F069F80D4883
:1014E00000F0C2F800BF0B4800F02FF80028FAD136
:1014F000084800F0C9F800BF064800F018F80028B6
:10150000FAD10121034800F0B4F807B000BD000093
:10151000000801400024014021B1826842F001022C
:10152000826003E0826822F0010282607047014617
:1015300000208A6802F004020AB1012000E00020C5
:1015400070470146C86C80B27047014600208A6827
:1015500002F008020AB1012000E0002070470000FC
:1015600030B502460020002350680F4C20400D7912
:101570000C6844EA05242043506090680B4C2040DE
:10158000D1E902542C434D7944EA4504204390604C
:10159000D06A20F470000C7C641EE4B2234340EA5D
:1015A0000350D06230BD0000FFFEF0FFFDF7F1FFF9
:1015B000F0B504460D4600200021092D11DDE0683C
:1015C000A5F10A0606EB4607072606FA07F1884347
:1015D000A5F10A0606EB460603FA06F10843E060A9
:1015E0000CE0206905EB4507072606FA07F188435A
:1015F00005EB450603FA06F108432061072A0FDAD6
:10160000606B561E06EB86071F2606FA07F1884315
:10161000561E06EB860605FA06F10843606322E0D3
:101620000D2A0FDA206BD61F06EB86071F2606FA57
:1016300007F18843D61F06EB860605FA06F1084334
:10164000206310E0E06AA2F10D0606EB86071F2674
:1016500006FA07F18843A2F10D0606EB860605FAA5
:1016600006F10843E062F0BD816841F00801816045
:10167000704721B1826842F4A002826003E0826870
:1016800022F4A00282607047816841F00401816009
:10169000704710B508222D21A62000F0EFFE05208E
:1016A00000F094F808223121A62000F0E7FE052082
:1016B00000F08CF809222C21A62000F0DFFE052086
:1016C00000F084F810BD00002DE9F04F85B03B48D4
:1016D000006804F0B7FD044603F048FB064604F03A
:1016E00043F803903548006804F0ACFD044603F06D
:1016F0002DFF064604F038F802903148006804F0E7
:10170000A1FD044603F032FB064604F02DF80190DB
:101710002B48006804F096FD044603F017FF0646C8
:1017200004F022F8009027498868039904F096FF96
:101730000646009904F092FF04462249486802993F
:1017400004F08CFF8046009904F088FF06461D498E
:101750000868019904F082FF0746314604F09EFDB7
:101760000546214604F09AFD82461649886802998A
:1017700004F074FF044613494868039904F06EFFAF
:101780000546214605F072F80490504604F05AFDD3
:1017900006460F46049880F0004B584604F052FD70
:1017A000804632463B4602F019FC044603F0DCFF5B
:1017B0000549086005B0BDE8F08F00002800002052
:1017C0002C000020840100207000002003490860E4
:1017D00000BF024909680029FBD17047480000207A
:1017E0002DE9F04F87B0574A9168906804F036FFB2
:1017F000544A03905168506804F030FF514A0290F7
:101800001168106804F02AFF0190029904F046FD67
:101810008346039904F042FD824604F013FD074617
:1018200003F0E4FE054603F09FFF044646480168C6
:101830004FF07E5004F0A0FD05462946204604F0F6
:101840009BFD044621464FF07E5005F00FF8804680
:10185000FFF703FE05464FF0804104F0FFFE074608
:101860004FF07E5104F0F7FF06464FF07E52002104
:1018700003F062FA0490354A3249354801F0CCFD54
:1018800034480499006804F0E9FE05462A463049C8
:10189000314801F00AFE31480499006804F0DEFE88
:1018A00005462A462A492E4801F0FFFD2C4A2D49BB
:1018B000084601F09DFD2C48006804F0C3FC074673
:1018C00003F054FA054603F04FFF814626480068AE
:1018D00004F0B8FC074603F039FE054603F044FF68
:1018E00006901A491839C868494604F0B7FE0546FB
:1018F000164918390868069904F0B0FE06462946CC
:1019000004F0B4FF059011491848059A01F0CDFD87
:10191000174816490268174801F0C7FD154A0E49D5
:10192000084601F065FD1448104902680C4801F0B2
:10193000BCFD0B4A0B49084601F05AFD07B0BDE853
:10194000F08F0000F8010020300000208C00002003
:1019500040020020600000201C02002064000020E3
:101960008802002028020020700000204C02002085
:10197000680000207C0200206C00002010B54FF4AD
:10198000007000F035F820B31248006800F40070D1
:1019900090B11148007830B100200F490870012043
:1019A0000E49087008E0032000F056FE0C4800685D
:1019B00020F008000A4908600648006800F400703A
:1019C00018B91921032001F031FA4FF4007000F02A
:1019D00009F810BD080C0140460000204500002019
:1019E00040000020014908607047000014040140D5
:1019F000014600200022074B1B6803EA0102054B49
:101A000014331B680B4013B10AB1012000E0002021
:101A10007047000000040140002123498279002A18
:101A20003AD00A46126803689A430B461A600A1DA8
:101A3000126803689A430B1D1A60027911440A6800
:101A400003681A430A60184A0832126803689A4306
:101A5000154B08331A601A1D126803689A43124B1B
:101A60000C331A604279102A0ED11A1F12680368CB
:101A70001A430D4B08331A601A1D126803681A4383
:101A8000094B0C331A600DE00749427911440A688A
:101A900003681A430A6005E0027911440A68036882
:101AA0009A430A6070470000000401402DE9F047A6
:101AB0001B49886904F0C6FB064602F047F881F02E
:101AC0000041044603F050FE164908601449086AB4
:101AD00004F0B8FB06460F461149C86904F0B2FB92
:101AE000804632463B4602F079FA044603F03CFE5B
:101AF0000D4908600A49086804F0A4FB804689463D
:101B00000749C86804F09EFB064642464B4602F071
:101B100065FA044603F028FE04490860BDE8F08732
:101B2000740000202C000020280000202400002049
:101B300030B5044604254FF4302000F089F80546FE
:101B4000042D17D10C48006940F002000A490861D1
:101B500008464461006940F0400008614FF43020BD
:101B600000F076F805460448006941F6FD7108402A
:101B700001490861284630BD0020024004200B497D
:101B8000C96801F0010109B101200EE00749C968E7
:101B900001F0040109B1022007E00449C96801F01D
:101BA000100109B1032000E004207047002002402A
:101BB0000348006940F08000014908617047000057
:101BC0000020024078B506460C460425002000900F
:101BD000E80200F03DF80546042D24D113480069C1
:101BE00040F00100114908613480E80200F030F84B
:101BF0000546042D10D1B01C0090200C00990880DF
:101C0000E80200F025F805460848006941F6FE7133
:101C100008400649086106E00448006941F6FE7183
:101C2000084002490861284678BD000000200240B3
:101C300001460868704700000248034948600348AD
:101C4000486070472301674500200240AB89EFCD13
:101C500000B502460423FFF791FF034603E0FFF7B8
:101C60008DFF0346521E012B01D1002AF7D102B984
:101C70000523184600BD000010B51A48006801F0A1
:101C80009DF9044618480168204604F0EFFD174905
:101C900048601748006801F091F90446154801684A
:101CA000204604F0E3FD114988601348006801F004
:101CB00085F9044611480168204604F0D7FD0B4918
:101CC000C8601E21094801F04DFA08484088401CB0
:101CD0000649488008464088B0F57A7F01DB00203D
:101CE000488010BD24000020C0000020B402002065
:101CF0002C000020C400002028000020C800002084
:101D000010B54AF6AA20144908800020488045F200
:101D1000555088834000114908800020488045F2D2
:101D20005550888301220EA141F2883000F084FED4
:101D30000E48006801F042F90D4908600D4800683E
:101D400001F03CF90C4908600C48006801F036F9D4
:101D50000B49086010BD0000B4020020940200206E
:101D600048415420424547494E00000024000020CD
:101D7000C00000202C000020C4000020280000200B
:101D8000C8000020F0B589B0002500273748FFF7CC
:101D9000D8FB00F00F050A20FFF718FD3348FFF7C6
:101DA000D0FB00F00F0045EA00153148FFF740FF77
:101DB000012858D000F080FF07468FB12D480068F9
:101DC00040F480702B49086040F2DC50FFF7FEFCC5
:101DD0002848006820F480702649086000BFFEE7AC
:101DE0002A4625A101A8FEF71FFA2248006840F004
:101DF0002000204908606420FFF7E8FC002422E06E
:101E0000234951F8240001F03FF9002606E021A003
:101E100001F0B5F9C820FFF7D9FC761C032EF6DBDC
:101E20001EA001F0ACF94FF4FA70FFF7CFFC01A847
:101E300001F0A5F94FF4FA70FFF7C8FC00211D4826
:101E400001F039FA641C032CDADB0A48006820F040
:101E5000200008490860FFF7EFFE01210448FFF762
:101E6000B1FEFFF7A5FE09B0F0BD0000002401405F
:101E7000008C00080C0C014041542B4E414D453D57
:101E80004D6F7665486561645F25640D0A0000004A
:101E90005000002041540D0A0000000041542B5511
:101EA0004152543D3131353230302C302C300D0A16
:101EB000000000000038014030B500228B071C0FE5
:101EC0000F2303FA04F20B4B8C1053F82430934386
:101ED000084C8D1044F8253023468C1053F82430DC
:101EE0008C07240F00FA04F42343024C8D1044F8AD
:101EF000253030BD080001402DE9F04102460025A3
:101F00000026002000230024002791F803C00CF0D5
:101F10000F0591F803C00CF0100CBCF1000F03D0BA
:101F200091F802C04CEA050591F800C0BCF1000F21
:101F300031D0146800202BE04FF0010C0CFA00F3B4
:101F4000B1F800C00CEA03069E4220D183004FF096
:101F50000F0C0CFA03F7BC4305FA03FC4CEA04042B
:101F600091F803C0BCF1280F06D14FF0010C0CFA18
:101F700000FCC2F814C00AE091F803C0BCF1480F9D
:101F800005D14FF0010C0CFA00FCC2F810C0401C47
:101F90000828D1D31460B1F800C0BCF1FF0F34DDC4
:101FA000546800202EE000F1080C4FF0010808FAF8
:101FB0000CF3B1F800C00CEA03069E4221D1830065
:101FC0004FF00F0C0CFA03F7BC4305FA03FC4CEA84
:101FD000040491F803C0BCF1280F05D100F1080CEE
:101FE00008FA0CF8C2F8148091F803C0BCF1480F4D
:101FF00007D100F1080C4FF0010808FA0CF8C2F8FC
:102000001080401C0828CED35460BDE8F081000049
:102010001FB50121042000F049FD0121082000F036
:1020200045FD0121102000F041FD0121084600F08E
:102030003DFD10208DF80F004FF49070ADF80C00AE
:1020400003208DF80E0003A92348FFF755FF042055
:102050008DF80F008001ADF80C0003208DF80E0004
:1020600003A91E48FFF748FF04208DF80F00400326
:10207000ADF80C0003208DF80E0003A91848FFF7F7
:102080003BFF17208DF8000000208DF801008DF82F
:10209000020001208DF80300684600F0F7FB0921DB
:1020A0000120FFF709FF4FF40070019001208DF827
:1020B0000A0000208DF8080010208DF8090001A802
:1020C000FFF7AAFC04480C30006840F48070024915
:1020D0000C3108601FBD0000000C014000080140E9
:1020E0000010014070B504460448006800F07AFF13
:1020F0000546214604F0B2FA70BD00003800002009
:102100002DE9F0410024002605E00E48FFF719FAFA
:10211000204484B2761C0A2EF7DB0A2094FBF0F0F0
:1021200084B2204604F052FA0746074904F096FAB2
:1021300006464FF0804104F091FA05462846BDE876
:10214000F0810000002401403333533A10B580225F
:102150003E21D02000F092F90520FFF737FB1B222B
:102160001621D02000F08AF90520FFF72FFB0A2264
:102170001521D02000F082F90520FFF727FB00226F
:102180003E21D02000F07AF90520FFF71FFB10BD9B
:1021900000B585B00121092000F088FC0121480527
:1021A00000F074FC0121084600F060FC1C208DF852
:1021B0001300C020ADF8100003208DF8120004A910
:1021C0000F48FFF799FE4FF48060ADF80A00000158
:1021D000ADF80C000B4800904BF6FF70ADF8060010
:1021E0000020ADF804000B20ADF808006946064851
:1021F00000F0B0F90121044800F06BF905B000BD12
:10220000000C0140A0860100005400402DE9F04779
:10221000064689461746984642F2107400E0641E4E
:102220004FF40031564800F078F908B1002CF6D18F
:102230001CB94FF0FF30BDE8F08742F21074012165
:102240004F4800F025F901214D4800F04EF900E01B
:10225000641E4C494A4800F027F908B9002CF7D110
:1022600014B94FF0FF30E6E742F210740022314615
:10227000434800F0E5F900E0641E4349404800F09F
:1022800013F908B9002CF7D114B94FF0FF30D2E799
:1022900042F2107401213A4800F01BF949463848CF
:1022A00000F0D7F900E0641E3749891C344800F07B
:1022B000FBF808B9002CF6D114B94FF0FF30BAE79B
:1022C00042F2107401212E4800F00FF900E0641E64
:1022D0002C492B4800F0E8F808B9002CF7D114B9C4
:1022E0004FF0FF30A7E742F2107401223146244834
:1022F00000F0A6F900E0641E2249491C204800F0C5
:10230000D3F808B9002CF6D114B94FF0FF3092E79A
:1023100042F21074002515E000E0641E19493F31B7
:10232000174800F0C1F808B9002CF6D114B94FF0E5
:10233000FF3080E742F2107411481030008808F82E
:1023400005006D1CBD42E7DB00210D4800F0A0F840
:1023500001210B4800F0D5F800E0641E4FF4003175
:10236000074800F0DAF808B1002CF6D114B94FF0A4
:10237000FF3060E742F21070044600BF5BE70000E8
:102380000054004001000300820007002DE9F047DF
:10239000064689461746984642F210740121344891
:1023A00000F0A3F800E0641E3249314800F07CF8E8
:1023B00008B9002CF7D11CB94FF0FF30BDE8F08709
:1023C00042F2107400223146294800F039F900E049
:1023D000641E2949264800F067F808B9002CF7D197
:1023E00014B94FF0FF30E9E742F210744946204833
:1023F00000F02FF900E0641E1F49891C1C4800F002
:1024000053F808B9002CF6D114B94FF0FF30D5E7D6
:1024100042F21074002515E018F80510144800F079
:1024200018F900E0641E1449891C114800F03CF8BA
:1024300008B9002CF6D114B94FF0FF30BEE742F2D4
:1024400010746D1CBD42E7DB0121094800F059F80A
:1024500000E0641E4FF40031054800F05EF808B15A
:10246000002CF6D114B94FF0FF30A7E700BFA5E765
:1024700000540040010003008200070037B5044605
:102480000D4602AB012229462046FFF77FFF3EBDE5
:1024900021B1028842F48062028004E002884FF693
:1024A000FF331A400280704770B5024600240025B1
:1024B00000230020958A138B1B0445EA030626F0AF
:1024C0007F4404EA01068E4201D1012000E0002091
:1024D00070BD21B1028842F00102028004E002884E
:1024E0004FF6FE731A400280704721B1028842F411
:1024F0008072028004E002884FF6FF631A40028077
:10250000704721B1028842F40072028004E0028820
:102510004FF6FF531A40028070470CB50246002068
:1025200000230193009300920B0F019321F07F4150
:10253000019B1BB1009B1433009303E0090C009B2B
:1025400018330093009B1B680B400BB1012000E087
:1025500000200CBD2DE9F04385B004460D46002651
:10256000B1460427DFF8CC80A6884FF6C07006403D
:10257000684600F0ABFADDF808802F48B8FBF0F0B1
:102580001FFA80F946EA0906A68020884FF6FE71F8
:102590000840208000262949286888420CD82868ED
:1025A0004000B8FBF0F087B2042F00DA04273E4366
:1025B00009F10100208427E0E8884BF6FF7188428A
:1025C00006D1286800EB4000B8FBF0F087B209E0C4
:1025D000286800EBC00101EB0010B8FBF0F087B2F7
:1025E00047F48047C7F30B0008B947F0010747F4E9
:1025F000004006434FF4967009FB00F04FF47A71E7
:1026000090FBF1F0401C2084A683208840F001005C
:10261000208026884FF6F5300640A888698908434F
:1026200006432680A88929890843208105B0BDE892
:10263000F083000000127A0040420F00A0860100E3
:1026400012B141F0010102E04FF6FE731940018220
:102650007047018270470000014600200AE0074AE7
:1026600012F830208A4204D10022044B03F83020B3
:102670007047401C0A28F2DB00BFF9E7A8010020E0
:1026800010B5002202213C20FFF7F8FE0520FFF7DD
:102690009DF8182200213C20FFF7F0FE0520FFF7EF
:1026A00095F810BD2DE9F84F06460F4690460024D8
:1026B00033E000252EE007F1180252F8251004EB54
:1026C000440206EB8202906803F0C8FF07F10C0297
:1026D000009052F8251004EB440206EB8202506889
:1026E00003F0BCFF824657F8251004EB440256F86D
:1026F000220003F0B3FF8346514603F0CFFD81462D
:10270000009903F0CBFD04EB440108EB810141F893
:1027100025006D1C032DCEDB641C032CC9DBBDE83A
:10272000F88F000070B547490868FFF7DBFC4649A1
:10273000086044494868FFF7D5FC4349486041496F
:102740008868FFF7CFFC40498860404800684049EE
:1027500008603E48406848603C48806888603D4A60
:1027600039493D4800F044FE3C4A3B493C4800F0B2
:102770003FFE00203B4908603B48006880F0004471
:1027800037488168204603F069FF3649486034487D
:1027900041683548006803F061FF3249886030487D
:1027A00081683148006803F059FF2E49C860002154
:1027B0002C4801612C48006880F0004428480168DA
:1027C000204603F04BFF274948612748006880F006
:1027D000004423484168204603F040FF21498861B6
:1027E0001F4801682048006803F038FF1D49C86190
:1027F00000211C4801621D4A01461D48FFF752FF97
:1028000000241CE0002517E004EB4402174B03EB07
:10281000820252F8251004EB4402154B03EB8202AE
:1028200052F8250003F03AFD04EB4401104A02EB94
:10283000810141F825006D1C032DE5DB641C032C90
:10284000E0DB70BD90010020040200207801002030
:10285000F801002028020020340200201C02002081
:1028600010020020980000203C00002058020020A8
:102870007400002000F01F020121914042099200E3
:1028800002F1E022C2F800117047000070B500218B
:1028900000230F22C47804B3154C246804F4E064C8
:1028A000C4F5E064210AC1F10403CA40447804FA83
:1028B00003F184781440214309010E4C0678A15598
:1028C000047804F01F050124AC4005786D11AD00BB
:1028D00005F1E025C5F8004109E0047804F01F0582
:1028E0000124AC40044D0678761145F8264070BDB1
:1028F0000CED00E000E400E080E100E010B500280D
:1029000007DA0A07140E054A00F00F031B1FD45400
:1029100003E00A07130E024A135410BD18ED00E03D
:1029200000E400E02DE9F04F89B00024A1463F49C2
:10293000A1F10C0000F0A1FD80F0004A504603F028
:1029400081FC074600223A4B03F0A2F9054602F04B
:102950000BFF044622463549684600F0A6FD224694
:1029600032490C3903A800F0A0FD304A0C3A694600
:10297000684600F03DFD2D4A03A903A800F038FD8C
:1029800003AA694606A800F047FD6946684600F0BC
:1029900074FD8346274903F05EFF824603F052FC34
:1029A00007460022224B03F073F9054602F0DCFED5
:1029B00081464A4669461D480C3800F076FD03A959
:1029C00003A800F05AFD83461A4903F044FF8246EB
:1029D00003F038FC07460022154B03F059F9054671
:1029E00002F0C2FE81464A4603A9104800F05DFD90
:1029F00006A906A800F041FD83460E4903F02BFF0F
:102A0000824603F01FFC07460022094B03F040F901
:102A1000054602F0A9FE81464A4606A903480C3045
:102A200000F043FD09B0BDE8F08F000080000020F9
:102A30000000E03F0000404070B504460E461546D9
:102A4000094844801821001DFDF7E9FC314606487D
:102A5000001DFDF7C0FC15B10A210348C1761E21F7
:102A6000014800F07FFB70BD9402002029B1064AA6
:102A700052690243044B5A6104E0034A526982439B
:102A8000014B5A61704700000010024029B1064A0C
:102A9000D2690243044BDA6104E0034AD2698243FB
:102AA000014BDA61704700000010024029B1064A6C
:102AB00092690243044B9A6104E0034A926982439B
:102AC000014B9A61704700000010024030B50021B0
:102AD0000022002400232D4D6D6805F00C0121B16A
:102AE000042905D0082923D105E0294D056022E0FD
:102AF000284D05601FE0254D6D6805F47012234DCB
:102B00006D6805F48034022505EB92421CB9224D14
:102B1000554305600BE01D4D6D6805F400351DB192
:102B20001B4D5543056002E01A4D5543056002E018
:102B3000174D056000BF00BF144D6D6805F0F00132
:102B40000909164D6B5C0568DD4045600F4D6D68E9
:102B500005F4E061090A114D6B5C4568DD40856054
:102B60000A4D6D6805F46051C90A0C4D6B5C4568EF
:102B7000DD40C560054D6D6805F44041890B084D89
:102B80006B5CC568B5FBF3F5056130BD0010024014
:102B900000127A000024F40000093D00000000202B
:102BA000100000201CB56B4606223221A620FFF73C
:102BB0002DFB9DF80310090209B29DF8022041EA9D
:102BC000020003F0EBFC0D4908609DF801100902BA
:102BD00009B29DF8002041EA020003F0DFFC07493A
:102BE00048609DF80510090209B29DF8042041EAE9
:102BF000020003F0D3FC014988601CBD780100206D
:102C00001CB56B4606221D21D020FFF7FFFA9DF868
:102C100003109DF8022041EA0221494208B203F064
:102C2000BDFC0D4908609DF801109DF8002041EAA7
:102C30000221494208B203F0B1FC074948609DF8FF
:102C400005109DF8042041EA0221494208B203F030
:102C5000A5FC014988601CBD900100201CB56B4695
:102C6000062203213C20FFF7D1FA9DF805109DF8BC
:102C7000042041EA0221494208B203F08FFC0D49C9
:102C800008609DF801109DF8002041EA02214942A8
:102C900008B203F083FC074948609DF803109DF8D3
:102CA000022041EA0221494208B203F077FC0149BF
:102CB00088601CBD8401002070B586B0002502F03C
:102CC000BBFB00241AE02A4951F8240003F04AFC17
:102CD00000B204A921F81400264951F8240003F099
:102CE00041FC00B202A921F81400234951F8240044
:102CF00003F038FC00B22DF81400641C032CE2DB56
:102D00004FF47A70FEF762FD02F096FB002429E092
:102D100004A931F9140003F041FC0646144850F8A8
:102D20002410304603F0EAFB00D1012502A931F955
:102D3000140003F033FC06460E4850F824103046C9
:102D400003F0DCFB00D102253DF9140003F026FC62
:102D50000646094850F82410304603F0CFFB00D156
:102D60000325641C032CD3DB284606B070BD00008D
:102D700078010020840100209001002010B500F0AF
:102D800001F810BD0CB500200190009025480068A6
:102D900040F480302349086000BF2248006800F4F6
:102DA000003000900198401C0190009818B90198DB
:102DB000B0F5A06FF1D11B48006800F4003010B1ED
:102DC0000120009001E0002000900098012828D107
:102DD0001548006840F01000134908600846006874
:102DE00020F0030008600846006808600D4840684D
:102DF0000C4948600846406848600846406848609A
:102E00000846406820F0030048600846406840F0EB
:102E10000100486000BF0348406800F00C0004282F
:102E2000F9D10CBD001002400020024002460020F3
:102E30000BE0104B13F83030934204D10D4B03EBF1
:102E4000C00359607047431CD8B20A28F1D1002052
:102E50000CE0084B13F8303033B9064B03F8302040
:102E600003EBC0035960EDE7431CD8B20A28F0D148
:102E700000BFE7E7A80100201849096821B11749F8
:102E80000968491E154A1160002024E0144911F810
:102E9000301001B91DE0124901EBC001496849B188
:102EA0000F4901EBC0014968491E0D4A02EBC002FF
:102EB00051600DE00A4911F8302001219140094A82
:102EC00012681143074A11600021054A02F83010C8
:102ED00000BF411CC8B20A28D8DB70474800002058
:102EE000A80100204000002010B51348006840F001
:102EF00001001149086008464068104908400E4921
:102F00004860084600680E4908400B4908600846BA
:102F1000006820F4802008600846406820F4FE0025
:102F200048604FF41F008860FFF728FF4FF00060F3
:102F30000449086010BD0000001002400000FFF8C6
:102F4000FFFFF6FE08ED00E010B51648008820F0FF
:102F50000100144908801448007808BB1348006831
:102F600020F002001149086014210120FFF75EFFE4
:102F70000F481049086002F05FFA01F0EFF801F025
:102F80004FFEFEF7A1FBFFF7CDFBFFF7CBFCFEF7F3
:102F900027FCFEF78BFD0848007808B1FEF76CFEB1
:102FA00010BD0000100800406C010020400000200F
:102FB0000AD7A33C3C0000201C0000202DE9F04172
:102FC0000446204603F03EF90546044A044B02F04D
:102FD0005FFE074602F0C8FBBDE8F081B0CB631A84
:102FE000DCA54C402DE9F0410446204603F02AF9C7
:102FF0000546044A044B02F04BFE074602F0B4FBC0
:10300000BDE8F08111DD52A246DF913F10B586B0D8
:10301000044601210420FFF739FD01A8FFF756FD02
:1030200042F210710298B0FBF1F0401E1549088081
:1030300004EB84000121C1EB40001249091D088006
:1030400010482838008840F010000E4928390880C0
:103050000846008820F0080008800A481C380088CC
:1030600040F0010007491C390880064828380088CC
:1030700040F001000349283908801E20FFF7FAFBC1
:1030800006B010BD2808004030B585B004460121C7
:103090000420FFF70BFD01218803FFF707FD18202F
:1030A0008DF813004FF40070ADF8100003208DF878
:1030B000120004A92048FEF71FFF04208DF813001A
:1030C0000002ADF8100003208DF8120004A91A4880
:1030D000FEF712FF00940020ADF80C000C20ADF8B4
:1030E0000A000020ADF80800ADF80600ADF80400B5
:1030F0006946124800F010F9012240F225510F48AC
:1031000000F0E5F825200121002807DA0A07150E4E
:103110000B4A00F00F031B1FD55403E00A07130EE0
:10312000084A135400BF2520FFF7A4FB01210348E0
:1031300000F0C1F805B030BD000801400038014082
:1031400018ED00E000E400E000BF0549098801F047
:1031500040010029F9D0C1B2014A121D1180704707
:103160000038014010B503460C4603E013F8010B8C
:10317000FFF7EAFF201EA4F10104F7D110BD10B53E
:103180000346002403E0185DFFF7DEFF641C185DB2
:103190000028F8D110BD000010B53A48008800F0B2
:1031A000080018B13748001D008810BD3548008858
:1031B00000F0020018B13348001D0088F5E73148DF
:1031C000008800F02000002859D040F225512D48F9
:1031D00000F062F82B4800882A48001D0088C1B220
:1031E000294890F80002401CC0B2274A82F8000229
:1031F0001154104690F80002114681F8000208466A
:1032000090F80002085C502818D006DC432809D04A
:10321000452819D04E2830D10AE0512826D053280D
:103220002BD11CE001201949087001F07DFC25E03C
:103230001648007808B101F0DFFB1FE01348007862
:1032400008B101F01FFC19E01048007830B10020EF
:103250000E4908700E49087002F0EEF90EE00D48B4
:10326000007810B901200B49087007E00948007880
:1032700010B100200749087000E000BF00BF00BF88
:1032800093E7000000380140D4020020E000002055
:103290006C0100201C00002010B50022002340F625
:1032A0006A14A14200D100BF0A1201249440A3B2C3
:1032B000DC43048010BD21B1828942F40052828136
:1032C00004E082894DF6FF731A4082817047F0B5A1
:1032D0000346002400260025002040F66A17B94264
:1032E00000D100BF1846C1F3421401F01F060127A8
:1032F00007FA06F5012C01D10C3004E0022C01D1B3
:10330000103000E014301AB107682F43076002E064
:103310000768AF430760F0BD2DE9F04786B005466A
:103320000E460024A24600BFA1460027B08900B186
:1033300000BF2F462C8A4CF6FF700440F0880443EF
:103340002C82AC894EF6F3100440B08831890843D2
:10335000718908430443AC81AC8A4FF6FF400440B6
:10336000B0890443AC8201A8FFF7B0FB1F48874235
:1033700002D1DDF810A001E0DDF80CA0A88900F46E
:10338000004040B10AEBCA0000EB0A103168490066
:10339000B0FBF1F807E00AEBCA0000EB0A10316855
:1033A0008900B0FBF1F86420B8FBF0F004012009BB
:1033B000642101FB1089A88900F4004040B132204B
:1033C00000EBC900B0FBF1F000F00700044308E097
:1033D000322000EB09106421B0FBF1F000F00F0087
:1033E00004432C8106B0BDE8F0870000003801409E
:1033F0002DE9F04105460E461746002408E057F82F
:10340000241056F8240002F049FF45F82400641CFB
:10341000032CF4DBBDE8F0812DE9F04106460C46B3
:1034200015466968A06803F019F90746A96860683D
:1034300003F014F98046394603F018FA3060A968A1
:10344000206803F00BF907462968A06803F006F925
:103450008046394603F00AFA70602968606803F014
:10346000FDF807466968206803F0F8F88046394699
:1034700003F0FCF9B060BDE8F0812DE9F0410546AC
:103480000E46002700240BE056F8241055F82400BF
:1034900003F0E4F88046394602F000FF0746641C5A
:1034A000032CF1DB3846BDE8F0812DE9F0410546FB
:1034B0000E461746002407E056F82400394603F06C
:1034C000CDF845F82400641C032CF5DBBDE8F08141
:1034D000490050EAC12018BF04204A0D18BF40F02F
:1034E000010040F2FF72B2EB515F08BF40F00200F2
:1034F000012808BF052070472DE9F74F144694B006
:103500000021C4E902111599079121F00045C9492C
:103510008D4206DC1599C4E9000117B00020BDE812
:10352000F08FC549DFF814A3A9423CDD0799C44ECA
:103530000029C44FC44A1599534619DD02F098FD7D
:10354000554506D0C14AC24B02F092FDC4E90001C4
:103550000AE04FF0D352BE4B02F08AFD32463B46A2
:1035600002F086FDC4E9000117B00120BDE8F08F2C
:1035700002F02CF9554506D0B44AB54B02F026F9B5
:10358000C4E900010AE04FF0D352B14B02F01EF93A
:1035900032463B4602F01AF9C4E9000117B04FF079
:1035A000FF30BDE8F08FAB49A942159978DB21F0D7
:1035B000004183468846A84AA84B02F069FB0022D6
:1035C000A74B02F003F902F009FB099002F035FB6A
:1035D00006460F469C4A534602F05AFB43465A465B
:1035E00002F054FC80468A46984A994B3046394648
:1035F00002F04EFB2A0D01250B924246534602F083
:1036000045FC032DC4E9000139D00B98C1F30A51E0
:10361000401A05EB45111139814230DA9148C34611
:10362000784400EB0510CDF80CA00C90D0E90023F5
:103630003046394602F02CFB02460B4604910690B8
:103640005846039902F014FD80468A4602460B460E
:103650005846039902F00CFD049B069A02F008FDFF
:1036600083460C9803913946D0E90223304602F094
:103670000FFB5A46039B02F0FBFC6D1CBDE707984D
:103680000028A2BF099817B0BDE8F08F616881F0EB
:1036900000416160099817B04042BDE8F08FFFE734
:1036A00084461598C1F31301C0F30A50A0F2F53017
:1036B0004FEA601800F01F06C6F1200013900020AA
:1036C0000690079041F4801E05206D4676B1664A4B
:1036D00008EB00017A4452F8213002EB8101B3403B
:1036E0004A68139922FA01F1194305E05F4908EB92
:1036F0000002794451F82210A1FB0E27A1FB0C1304
:103700001A449A4234BF0123002303EB070A05EB56
:103710008003D3E901B70F448F4234BF0121002158
:1037200093448B4411B1934502D903E0934501D2F0
:10373000012100E00021C3E901B7514445F8201000
:10374000011EA0F10100C1DC0298059F00F10050AC
:10375000800F12900298DDE90356800002F06DFAA6
:10376000834628460D9102F07FFA6FF01D0203F0A8
:1037700026F9CDE90E01304602F076FA6FF03D02EF
:1037800003F01DF980468A46384602F06DFA6FF064
:103790005D0203F014F9074642465346119102F0C8
:1037A00015F8DDE90E2302F011F85A460D9B02F0E0
:1037B0000DF800250E465A4628460D9B02F058FC8F
:1037C000DDE90E2302F054FC4246534602F050FC61
:1037D0003A46119B02F05AFBDFF898A0244A534660
:1037E00002F056FA07468846234A244B31462846BB
:1037F00002F04EFA3A46434601F0E8FF0746884693
:103800004FF0A84253463146284602F041FA3A4664
:10381000434601F0DBFF159A12F0004F04D0129AD4
:1038200081F0004152421292C4E90001129817B08F
:10383000BDE8F08FFB21E93F7CD90240FB21F93F35
:103840007370032E8A19A33B000040543163621A3F
:1038500061B4D03DFB21394183C8C96D305FE43F7D
:103860000000E03F54350000D0340000B2340000C6
:10387000182D4454FB21F93D3326A611460B113C6B
:103880002DE9FF4D21F0004807460C46B8F1795F5D
:1038900008DA02F0A3F9002801BF0020324904B081
:1038A000BDE8F08D3A4623461046194602F0F0F97D
:1038B000054602462D480E460B460621784400F088
:1038C0005DF82A46334602F0E3F9DDE90223824639
:1038D0008B463846214602F0DBF904460F46524635
:1038E0005B462846314602F0D3F922463B4602F0B9
:1038F000BFFB07468A464FF0FF322846314603F0A9
:103900005EF81B4A90450ADA3A46534602F0B0FB8D
:1039100004B00022BDE8F04D134B02F0B7BA154ACF
:103920004245A8BFA8F500154FF00004B8BF124DDE
:1039300022462B4602F09CFB0646884622462B4632
:103940000020094902F094FB04460D463A465346CE
:103950003046414602F08CFB04B022462B46BDE8BF
:10396000F04D02F093BA00000000F03F80320000FA
:103970003333D33F0000E93F0000D23F2DE9F0414F
:103980004F1E00EBC7010446D1E9000115461E4653
:1039900037F006020DD02A46334602F079F97F1E31
:1039A00004EBC703D3E9002301F010FF37F0060250
:1039B000F1D1022F25D0042F13D0062F18BFBDE858
:1039C000F0812A46334602F063F9D4E90A2301F074
:1039D000FDFE2A46334602F05BF9D4E9082301F0E4
:1039E000F5FE2A46334602F053F9D4E9062301F0E6
:1039F000EDFE2A46334602F04BF9D4E9042301F0E8
:103A0000E5FE2A46334602F043F9D4E9022301F0E9
:103A1000DDFE2A46334602F03BF9D4E90023BDE837
:103A2000F04101F0D3BE00002DE9FF4D054621F025
:103A3000004084B00C46B0F1795F0BDA2846FFF7FE
:103A400047FD042808BF00F071F8284608B0214659
:103A5000BDE8F08D2A460B46104602F019F90646DD
:103A60000F462A46234602F013F9804626488A4626
:103A700032463B4605217844FFF780FF8346109885
:103A8000029160B3214A224B4046514602F000F9B0
:103A9000CDE900015A4640465146029B02F0F8F833
:103AA00082468846DDE906014FF0FF3202F087FFCB
:103AB0005246434602F0DCFA32463B4602F0E8F852
:103AC000DDE9062302F0D4FADDE9002302F0D0FAA2
:103AD00008B02A462346BDE8F04D02F0D7B90B46A0
:103AE0005A463046394602F0D3F8084A084B01F0EE
:103AF0006DFE4246534602F0CBF808B02A462346F4
:103B0000BDE8F04D01F062BEC63100004955555583
:103B10005555C5BF012202F052BF01F057BE002229
:103B200013461046114601F001BF0000024A002072
:103B3000110702F044BF000001FDFFFF30380A28E2
:103B400001D2012070470020704700002DE9F04DA0
:103B50008D4F21F0004A86B005460C46BA452ADB57
:103B6000AAEB070028430AD08848824501DC1AD115
:103B7000CDB106B02846BDE8F04DFFF7CBBF844A73
:103B8000844B284602F084F807460E46824A834B4F
:103B90002846214602F07CF806B03A463346BDE896
:103BA000F04D01F013BE0120FCF763FC06B0BDE848
:103BB000F04DFFF7B4BF7A48824542DABAF1795F37
:103BC0000BDA2846FFF784FC042808BFFFF7AEFF96
:103BD000284606B02146BDE8F08D2A460B46104621
:103BE00002F056F8834602466E480E460B46062102
:103BF0007844FFF7C3FE5A46334602F049F8804640
:103C000069488A465A46334604217844FFF7B6FE8F
:103C10005A46334602F03CF800223B4601F0D6FDFE
:103C200002460B464046514601F080FE2A46234696
:103C300002F02EF806B02A462346BDE8F04D01F00A
:103C4000C5BD284624F0004100223D463B4602F017
:103C50001DF94FF0FF3202F0B2FE0646024653480D
:103C60000F460B4606217844FFF788FE32463B4656
:103C700002F00EF8CDE900014D4832463B460421E2
:103C80007844FFF77BFE32463B4602F001F8002203
:103C90002B4601F09BFD834602913046394601F0E8
:103CA000A5FC804643480D46504517DCDDE9000180
:103CB0005A46029B01F03AFE42462B4601F0E8FFCD
:103CC00042462B4601F082FD012202F078FE304A86
:103CD000304B02F0CDF9304A304B4CE04FF0000A47
:103CE00052460B46404601F071FDCDE903105246A5
:103CF0002B461046194601F0CBFF32463B4602F0F8
:103D0000C5F8DDE9033201F011FE06460F46DDE994
:103D100000015A46029B01F009FE834600910122F0
:103D20003046394602F04BFE194A1A4B02F0AEF803
:103D300006460F4601224046294602F040FE5A46FA
:103D4000009B01F0A5FF32463B4602F091F9064682
:103D50000F4601225046294602F031FE0E4DDFF893
:103D600058802A46434602F091F832463B4602F01C
:103D70008DF82A46434602F089F8002CD8BF81F01E
:103D8000004106B0BDE8F08D0000F03F0000F07F7C
:103D9000075C143326A6913C182D4454FB21F93FAF
:103DA0000000E03F642E00007A2E0000EE2D00009F
:103DB000042E00003333EF3FFB21E93F2DE9F84F9C
:103DC00004460D4621F0004000917349814211DC08
:103DD0007249884201DC06D12CB120462946BDE853
:103DE000F84FFFF797BE6E48002DCCBF6D496E4966
:103DF000BDE8F88F6D49814211DD6D498142D8BF20
:103E00004FF0FF366DDD20462946FFF761FB0428A1
:103E100008BFFFF78BFE20462946BDE8F88F6549AD
:103E2000654F25F00045814233DD6449814219DD4B
:103E3000002632464FF080432046294601F0C6FC5A
:103E400080468A4601222046294602F0B8FD00221B
:103E50003B4602F00DF94246534601F067FD044629
:103E60000D463EE001260022BA463B462046294642
:103E700001F0ACFC80460F460022534620462946FE
:103E800002F0F6F842463B4601F050FD04460D466E
:103E900027E04B4981421BDDDFF828A102260022E2
:103EA00053462046294601F0F3FE00223B4601F02E
:103EB0008DFC80460F46002253462046294602F0DC
:103EC000D7F842463B4601F031FD04460D4608E076
:103ED000032622462B4600203B4901F027FD0446DD
:103EE0000D4622462B461046194601F0D1FE8B4660
:103EF000824602460B4601F0CBFE07460246334897
:103F000088460B4606217844FFF738FD52465B464B
:103F100001F0BEFE82462E488B463A4643460521B6
:103F20007844FFF72BFD3A46434601F0B1FE0246C6
:103F30000B46002E504659460CDA01F047FC22464B
:103F40002B4601F0A5FE01B022462B46BDE8F04FFE
:103F500001F09CBF01F03AFC22462B4601F098FE8E
:103F60001C4A7A4402EBC603D3E9002302F080F82E
:103F700022462B4602F07CF8174A7A4402EBC6032D
:103F8000D3E9002301F082FF009A002AB8BF81F034
:103F90000041BDE8F88F0000000010440000F07FF1
:103FA000182D4454FB21F93FFB21F9BF0000DC3FF1
:103FB0000000203E0000F33F0000F03F0000E63F1D
:103FC000008003400000F83F0000F0BF062C000016
:103FD000C42B0000622B00002A2B00002DE9F04DBD
:103FE0009446CCF1000423F000464CEA0404524FFE
:103FF00046EAD4749A46884621F00042BC4206D86C
:10400000454240EA050442EAD474BC4204D9BDE802
:10401000F04D6246FFF781BDAAF14055A5F17F65DD
:1040200055EA0C040BD0022404EAAA74434DDFF8CD
:1040300010E144EAD87452EA000B04D00CE0BDE869
:10404000F04DFFF7BBBE002C14BF012CBDE8F08D76
:10405000022C30D0032C32D056EA0C0B0AD0BE42D0
:1040600020D1BA4209D126F0804622F08042334660
:10407000114617E000291ADB25E0DFF8C8B0FB4441
:10408000002C04BFDBE90001BDE8F08D012C02BF6C
:10409000DBE9000181F00041BDE8F08D022C0AD07F
:1040A000032C0CD0BA4212D1B8F1000F0BDA23481E
:1040B0002549BDE8F08D28462449BDE8F08D284605
:1040C0007146BDE8F08D1D482149BDE8F08D921B79
:1040D00012153C2AC4BF19481D490EDCBAF1000F65
:1040E000BEBF12F13C0F0020014606DB624601F024
:1040F0001DFC21F00041FFF761FE002C08BFBDE868
:10410000F08D012C04BF81F00041BDE8F08D114A13
:10411000114B022C07D001F0ABFF2A46BDE8F04D51
:104120000A4B01F0A5BF01F0A3FF2A46BDE8F04D00
:10413000064B01F0ABBE00000000F07F182D445488
:10414000FB2109C0EE2A0000FB21F9BFFB21094039
:10415000FB21F93F075C143326A6A13C2DE9F04171
:10416000B1480168B148006802F098F8804602F052
:1041700069F8064600224FF0804301F0D7FB044661
:1041800001F0F2FAAA490860AA480168AA48006842
:1041900002F084F8804602F055F8064600224FF0FF
:1041A000804301F0C3FB044601F0DEFAA349086036
:1041B000A3480168A348006802F070F8804602F046
:1041C00041F8064600224FF0804301F0AFFB044661
:1041D00001F0CAFA9C490860954801689248006855
:1041E00002F044FB0446994801684FF07E5002F00B
:1041F000C3F80546214602F0BFF8954908608F488C
:1042000001688C48006802F031FB04468F48016861
:104210004FF07E5002F0B0F80546214602F0ACF8AF
:104220008C490860884801688548006802F01EFBD8
:104230000446864801684FF07E5002F09DF805461E
:10424000214602F099F88449086078480168764868
:10425000006802F00BFB81490860774801687548E7
:10426000006802F003FB7E490860764801687448E4
:10427000006802F0FBFA7B4908607B4801687B48D4
:10428000006802F00BF8804601F0DCFF06460022D1
:104290004FF0804301F04AFB044601F065FA74498F
:1042A0000860744801687448006801F0F7FF8046B0
:1042B00001F0C8FF064600224FF0804301F036FBB4
:1042C000044601F051FA6D4908606D4801686D4877
:1042D000006801F0E3FF804601F0B4FF06460022CB
:1042E0004FF0804301F022FB044601F03DFA66499D
:1042F00008605F4801685C48006802F0B7FA04464D
:10430000624801684FF07E5002F036F805462146BB
:1043100002F032F85E490860584801685548006864
:1043200002F0A4FA0446594801684FF07E5002F0AA
:1043300023F80546214602F01FF856490860524806
:1043400001684F48006802F091FA04464F4801683E
:104350004FF07E5002F010F80546214602F00CF8AE
:104360004D490860414801683F48006802F07EFA04
:104370004A490860404801683E48006802F076FA01
:10438000474908603F4801683D48006802F06EFAFE
:104390004449086044493148006802F02BFA0BD3C5
:1043A00041492F48006802F025FA05D33E492D48BF
:1043B000006802F01FFA11D23C481C4908603C48D2
:1043C0001949086039481C4908603948194908608A
:1043D00036481C49086036481949086035492F4855
:1043E000006802F007FA0BD332492D48006802F04A
:1043F00001FA05D32F492B48006802F0FBF911D2CE
:104400002A481A4908602A481749086027481A4963
:10441000086027481749086024481A49086024485A
:1044200017490860BDE8F081E8000020E4000020A2
:10443000FC000020F0000020EC0000200001002023
:10444000F8000020F40000200401002030000020CB
:10445000080100200C0100201001002014010020A0
:10446000180100201C010020240100202001002050
:10447000380100202C010020280100203C010020F0
:1044800034010020300100204001002034000020D1
:1044900044010020480100204C0100205001002070
:1044A000540100205801002000002F4400803B45AB
:1044B00000401CC50000FA4530B585B0FE480078C4
:1044C00000F0200060B1FC48006820F02000FA49AC
:1044D00008600020F9490870F949087001F0ACF84B
:1044E000F648007830B9F748007818B10020F5494F
:1044F000087041E0F148007868B9F348007850B19D
:104500000020F1490870EF490870ED48007898BB29
:1045100000F00AFB30E0E948007868B1E94800782B
:1045200050B10020E8490870E6490870E448007876
:1045300010BB00F061FA1FE0E0480078E0B1E2480B
:104540000078C8B10020E0490870DE490870DC48F6
:10455000007888B9DD48006840F48070DB49086065
:104560004FF47A70FDF732F9D848006820F4807073
:10457000D649086000F0D8FAD0480078002874D0F6
:1045800000F05AFFFFF7EAFDD148006820B101288A
:1045900048D0022845D18CE0CE490868CE49096848
:1045A00002F028F904D2CB480068CB4908600AE041
:1045B000C8490868C949096802F01CF803D2C5480F
:1045C0000068C6490860C3494868C549096802F0DF
:1045D00011F904D2BF484068C14908600AE0BD49EA
:1045E0004868C049096802F005F803D2B948406834
:1045F000BC490860B7498868BB49096802F0FAF805
:1046000004D2B4488068B84908600AE0B1498868B3
:10461000B649096801F0EEFF03D2AE488068B3499D
:10462000086080E0B2490868B249096802F0E2F81F
:1046300004D2AF480068AF4908600AE0AC49086896
:10464000AD49096801F0D6FF03D2A9480068AA491C
:104650000860A7494868A949096802F0CBF805D263
:10466000A3484068A54908600BE0B3E1A049486849
:10467000A349096801F0BEFF03D29D484068A049E4
:1046800008609B4988689F49096802F0B3F804D222
:10469000974880689B4908600AE0954988689A496C
:1046A000096801F0A7FF03D2914880689649086025
:1046B00039E000240BE0954A52F82410944A52F84D
:1046C000240001F0EBFD924941F82400641C032C06
:1046D000F1DB90480068401C8E490860084600687D
:1046E00001F05CFF04468A490868214601F044FE57
:1046F000894908608748006801F050FF04468449F2
:104700004868214601F038FE844908608148006805
:1047100001F044FF04467E498868214601F02CFEE2
:104720007F49086000BF00BF7EA0FEF728FD6B48F0
:10473000006801F087FD044622460B467BA16846CF
:10474000FBF772FD6846FEF71AFD7AA0FEF717FD2B
:104750006148006801F076FD044622460B4673A1CD
:104760006846FBF761FD6846FEF709FD72A0FEF79B
:1047700006FD5C48006801F065FD044622460B46D4
:104780006AA16846FBF750FD6846FEF7F8FC69A091
:10479000FEF7F5FC5248006801F054FD044622463D
:1047A0000B4662A16846FBF73FFD6846FEF7E7FC53
:1047B00061A0FEF7E4FC4D48006801F043FD0446AB
:1047C00022460B4659A16846FBF72EFD6846FEF7C8
:1047D000D6FC58A0FEF7D3FC4348006801F032FD38
:1047E000044622460B4651A16846FBF71DFD68466C
:1047F000FEF7C5FC51A0FEF7C2FC51A0FEF7BFFCBE
:104800003D48006801F01EFD044622460B4647A1C4
:104810006846FBF709FD6846FEF7B1FC45A0FEF7C8
:10482000AEFC3448006801F00DFD044622460B46FC
:104830003EA16846FBF7F8FC6846FEF7A0FC3EA0E8
:10484000FEF79DFC2E48006801F0FCFC0446224661
:104850000B4636A16846FBF7E7FC6846FEF78FFC7F
:1048600034A0FEF78CFC2548006801F0EBFC044600
:1048700022460B462DA16846FBF7D6FC6846FEF79C
:104880007EFC2DA0FEF77BFC1F48006801F0DAFCDF
:10489000044622460B4625A16846FBF7C5FC684640
:1048A000FEF76DFC23A0FEF76AFC1648006801F0D5
:1048B000C9FC0446224647E0400000206C0100206D
:1048C000E000002045000020440000200C0C0140C6
:1048D0007001002078010020E8000020E4000020A2
:1048E000F0000020EC000020F8000020F400002080
:1048F0008401002024010020200100202C01002040
:104900002801002034010020300100209001002007
:10491000D8040020680100205C0100206001002014
:1049200064010020414343454C3A2000252E316666
:10493000000000002F0000003B20000020200000AD
:104940004D41474E3A2000000B46AFF22001684629
:10495000FBF76AFC6846FEF712FCAFF22000FEF798
:104960000EFC1DA0FEF70BFC1D48006801F06AFC60
:10497000044622460B461BA16846FBF755FC6846D9
:10498000FEF7FDFBAFF25400FEF7F9FB1748006895
:1049900001F058FC044622460B4612A16846FBF77C
:1049A00043FC6846FEF7EBFBAFF27800FEF7E7FB4F
:1049B0000F48006801F046FC044622460B4609A158
:1049C0006846FBF731FC6846FEF7D9FB09A0FEF705
:1049D000D6FB00BF05B030BD4759524F3A2000000A
:1049E0005C010020252E32660000000060010020DE
:1049F000640100200D0A000010B51D48007888B33E
:104A00000520FDF729FE1B490520FEF70FFA1A487D
:104A10000068401C1849086008460068032810DB3D
:104A200000200860124908701449087000F004FE64
:104A30000520FDF711FE4FF47A710420FEF7F6F918
:104A400014E00F48006820F480700D4908604FF4AE
:104A5000FA70FCF7BBFE0A48006840F48070084911
:104A6000086003E0FFE700200349086010BD000074
:104A70006C010020E093040070010020E0000020A1
:104A80000C0C014010B52248007800283CD00520CD
:104A9000FDF7E2FD1F490520FEF7C8F91E48006832
:104AA00020F480701C4908604FF4FA70FCF78EFE09
:104AB0001948006840F4807017490860174800687A
:104AC000002824DD15480068401E14490860084687
:104AD000006810B900F0CEFB0EE010480068012815
:104AE00004D100F06FFC00F04FFC05E00B480068BB
:104AF000022801D100F048FC00200949086009495A
:104B000008604860886002E000200449086010BD29
:104B10006C010020E09304000C0C014070010020A7
:104B200068010020D804002010B501203449087025
:104B3000FDF782F83348FCF7FBFF33493148FDF7B6
:104B400041F832492F48001DFDF73CF82E492D4809
:104B50000830FDF737F82D492A480C30FDF732F8B8
:104B6000294928481030FDF72DF8284925481430E8
:104B7000FDF728F8244923481830FDF723F8234986
:104B800020481C30FDF71EF81F491E482030FDF755
:104B900019F81E491B482430FDF714F81A49194822
:104BA0002830FDF70FF8194916482C30FDF70AF8A0
:104BB000002114483030FDF705F800211148343049
:104BC000FDF700F800210F483830FCF7FBFFFCF739
:104BD000EFFF00F04FFB00200D4908600D49086011
:104BE000486088600C4908600420FDF735FD3221DB
:104BF0000420FEF71BF909490520FEF717F910BD3F
:104C00006C010020007C00080000FA460018F6C67F
:104C100068010020D804002070010020E093040007
:104C200010B5334908683349096801F01FFE04468E
:104C300031480168204601F011FD2D49086048689F
:104C40002E49096801F012FE04462D4801682046ED
:104C500001F004FD2649486088682A49096801F086
:104C600005FE044628480168204601F0F7FC20496B
:104C70008860264908682649096801F0F7FD04465E
:104C800024480168204601F0E9FC20490860486892
:104C90002149096801F0EAFD0446204801682046E0
:104CA00001F0DCFC1949486088681D49096801F079
:104CB000DDFD04461B480168204601F0CFFC134986
:104CC0008860194908681949096801F0CFFD16493B
:104CD000086048681649096801F0C8FD1249486033
:104CE00088681449096801F0C1FD0F49886010BD4A
:104CF00078010020FC0000200801002000010020B5
:104D00000C0100200401002010010020840100207B
:104D100038010020440100203C010020480100200F
:104D2000400100204C010020900100205C01002087
:104D3000600100206401002070B506460D4614464F
:104D40002946304601F056FD06D82146304601F08E
:104D500051FC01D8304670BD2946304601F04AFC6E
:104D600001D22846F7E72046F5E7000000B5244BBE
:104D700021F0004287B09A42DCBF0022134629DDB1
:104D8000204B9A4208D140B94FF00100FBF771FB6C
:104D9000FEF7C5FE07B000BD03DBFEF7BBFE07B0A4
:104DA00000BD02AAFEF7A8FB10F0030104BF0DF13D
:104DB000080C9CE80F000DD0012001290ED002291B
:104DC00014D00DF1080C00909CE80F00FEF72CFEAB
:104DD00007B000BDFEF754FD07B000BD0DF1080C93
:104DE00000909CE80F00FEF71FFE05E00DF1080C97
:104DF0009CE80F00FEF744FD07B081F0004100BDC4
:104E0000FB21E93F0000F07F4FF06E500149086040
:104E100070470000300000200148024908607047D8
:104E2000B77A8E3D3800002001480249086070477B
:104E30000AD7233C340000202DE9F04F87B0044608
:104E40000D4616461F46384601F0FCF9CDE9000133
:104E5000FFF78CFFCDE9020100F086FC0590384693
:104E600001F0F0F9CDE9000100F070FBCDE902019D
:104E700000F07AFC8046304601F0E4F9CDE900010B
:104E8000FFF774FFCDE9020100F06EFC8146304669
:104E900001F0D8F9CDE9000100F058FBCDE902019D
:104EA00000F062FC8246284601F0CCF9CDE9000111
:104EB000FFF75CFFCDE9020100F056FC834628466F
:104EC00001F0C0F9CDE9000100F040FBCDE902019D
:104ED00000F04AFC04905946484601F0BFFB2060B0
:104EE000DDE9041001F0BAFB41460390584601F099
:104EF000B5FB5146019001F0B1FB0290039901F01E
:104F0000B5FC60605946059801F0A8FB5146019038
:104F100001F0A4FB03904046049901F09FFB02902E
:104F2000039901F0BBF9A0604846049901F096FB93
:104F3000E0605146404601F091FB0190049901F078
:104F40008DFB59460390059801F088FB0290039968
:104F500001F0A4F920614146584601F07FFB51461B
:104F60000390059801F07AFB0190049901F076FB1B
:104F70000290039901F07AFC60618AF00040A06120
:104F80004146484601F06AFBE0614946059801F058
:104F900065FB206207B0BDE8F08F000086B001A875
:104FA000FDF794FD4FF47A710198B0FBF1F4B4F180
:104FB000807F00D311E024F07F40401E4FF0E021BD
:104FC00048610F214FF0FF30FDF798FC00204FF0B3
:104FD000E02188610720086100BF0021481EFDF71D
:104FE0008DFCFFF711FFFFF71FFFFFF715FFFDF720
:104FF0000FF89248006820F4807090490860FCF730
:1050000039FAFDF7C5F8FCF744FBFDF739FBFDF76E
:105010009DF81420FCF7DAFBFCF7B4FE4FF4E13006
:10502000FEF732F800F026F94FF47A710420FDF70C
:10503000FDFE8248006840F480708049086000F0FE
:1050400003FAFCF75DFE1420FDF7E0FF4FF47A71E0
:105050000620FDF7EBFE01210820FDF7E7FE41F2F7
:1050600088310920FDF7E2FEE6E07548806800F42B
:10507000004018B900207349087002E0012071490E
:1050800008707148006800F4807018B100206F4902
:10509000087002E001206D4908706D48008800F436
:1050A000807058B16A48006820F4807068490860D0
:1050B00001210820FDF7BAFEFFF7FEF964480088D9
:1050C00000F4007038B16248006820F40070604954
:1050D000086000F027FA5E48007800F0020020B374
:1050E0005C48007808BB5A48006820F00200584924
:1050F000086014210120FDF799FE574857490860C0
:1051000000F09AF9FFF72AF8FFF78AFDFCF7DCFABE
:10511000FDF708FBFDF706FCFCF762FBFCF7C6FC9D
:105120004848007808B1FCF7A7FD4948007800F02E
:10513000400008B34648006820F040004449086039
:105140004FF47A710620FDF771FEFCF7D9FF444950
:10515000086044494248006801F04CFA03D201203B
:105160004149087008E041493D48006801F042FBB0
:1051700002D200203C4908703548007800F0100049
:10518000002859D03248006820F0100030490860EB
:105190003548007858B14FF496710420FDF746FE6B
:1051A0002648006880F480702449086044E025485F
:1051B000007810BB27480078F8B92D48007858B916
:1051C0004FF4FA610420FDF731FE1C48006840F4FA
:1051D00080701A49086009E064210420FDF726FE6A
:1051E0001648006820F48070144908602048007850
:1051F00080F001001E4908701EE01248007870B16E
:105200001448007858B94FF47A710420FDF70EFE67
:105210000A48006880F48070084908600CE00D4876
:10522000007848B132210420FDF700FE03480068F1
:1052300080F480700149086017E700000C0C014001
:10524000001001401C000020080801401E00002042
:10525000400000206C0100200AD7A33C3C00002045
:1052600020000020333353401F00002099995940FB
:105270001D00002010B53448FCF7DAFC0446334822
:1052800004603148001DFCF7D3FC0446304804603C
:105290002D480830FCF7CCFC04462E4804602A4810
:1052A0000C30FCF7C5FC04462B480460264810303F
:1052B000FCF7BEFC04462948046023481430FCF780
:1052C000B7FC0446264804601F481830FCF7B0FCC1
:1052D0000446244804601C481C30FCF7A9FC044622
:1052E0002148046018482030FCF7A2FC04461F48FF
:1052F000046015482430FCF79BFC04461C480460FD
:1053000011482830FCF794FC04461A4804600E4803
:105310002C30FCF78DFC0446174804600A483030F6
:10532000FCF786FC04461548046007483430FCF757
:105330007FFC04461248046003483830FCF778FCD0
:1053400004461048046010BD007C0008E400002002
:10535000E8000020EC000020F0000020F400002015
:10536000F800002020010020240100202801002056
:105370002C01002030010020340100205C010020BD
:10538000600100206401002010B50A48FCF750FCC1
:105390000446094804600748001DFCF749FC044620
:1053A0000648046003480830FCF742FC0446044801
:1053B000046010BD307C00085C010020600100200A
:1053C0006401002010B51548FCF732FC044614486F
:1053D00004601248001DFCF72BFC044611480460D1
:1053E0000E480830FCF724FC04460F4804600B48C4
:1053F0000C30FCF71DFC04460C48046007481030D4
:10540000FCF716FC04460A48046004481430FCF714
:105410000FFC04460748046010BD0000187C00081B
:105420002001002024010020280100202C01002060
:10543000300100203401002010B5FDF7E1FBFDF73D
:10544000B1FBFDF70BFC10BD2DE9F04F8DB02E4ADE
:1054500007CA04AB07C3FFF7EFFF2C4A91689068B7
:1054600001F0FCF88346294A5168506801F0F6F8CB
:105470005946019000F012FF824600F0E3FE064616
:1054800000F0B4F8804689462049086800F0DAFE4A
:1054900042464B46CDE90201FEF7A0FD81F00041F6
:1054A000044600F061F91A49086004AA17490AA8DD
:1054B000FDF7B2FF0AAA04A907A8FDF7ADFF0998F6
:1054C00000F0C0FE80468946089800F0BBFE064604
:1054D00042464B46FEF782FD044600F045F90D4971
:1054E0000860FCF7F1F80C4800680C4908600948AE
:1054F000036807480268084601680948FFF79CFCF2
:105500000DB0BDE8F08F00004C6A00087801002063
:105510002C00002028000020700000202400002023
:105520007400002010B50548036805480268054866
:1055300001680548FFF780FC10BD0000280000202E
:105540002C000020700000207400002000B5254BC6
:1055500021F0004287B09A4203DC002213460092F9
:105560002BE0214B9A4208D140B94FF00100FAF7E5
:1055700080FFFEF7D4FA07B000BD03DBFEF7CAFADE
:1055800007B000BD02AAFDF7B7FF10F003014FF00E
:1055900001000DD0012914D002291AD00DF1080CF8
:1055A0009CE80F00FEF76CF907B081F0004100BDE8
:1055B0000DF1080C00909CE80F00FEF735FA07B0DB
:1055C00000BD0DF1080C9CE80F00FEF759F907B07B
:1055D00000BD0DF1080C00909CE80F00FEF724FAC6
:1055E000E2E70000FB21E93F0000F07F2DE9F041F8
:1055F00006460F4600F056FC041E0D4618BF01205B
:10560000284320F00040C0F17F6000F1E040C00F6F
:105610000ED0301C18BF0120384320F00040C0F1EC
:105620007F6000F1E040C00F04BF0120FAF721FFC6
:1056300020462946BDE8F08110B5FCF7FDFA2F4859
:10564000FCF776FA2E4801682C48FCF7BBFA2D4887
:1056500001682A48001DFCF7B5FA2B480168274865
:105660000830FCF7AFFA2948016824480C30FCF7F1
:10567000A9FA2748016821481030FCF7A3FA254809
:1056800001681E481430FCF79DFA234801681B4846
:105690001830FCF797FA2148016818481C30FCF7CD
:1056A00091FA1F48016815482030FCF78BFA1D4815
:1056B000016812482430FCF785FA1B4801680F483E
:1056C0002830FCF77FFA194801680C482C30FCF7A9
:1056D00079FA1748016809483030FCF773FA154821
:1056E000016806483430FCF76DFA13480168034836
:1056F0003830FCF767FAFCF75BFA10BD007C000855
:10570000E4000020E8000020EC000020F000002071
:10571000F4000020F80000202001002024010020D7
:10572000280100202C01002030010020340100203D
:105730005C010020600100206401002010B50029F8
:105740000AD00878002807D005487844FBF776FA95
:10575000002801D0002010BD0248784410BD000090
:10576000D2150000CA15000021F00042A2F16052DB
:10577000B2F5801F01F0004328BFD2F17F6C0BD936
:105780005FEA001C43EAC20242EB507018BF704748
:1057900028BF20F001007047B2F5801FBCBF18463B
:1057A00070474FEA410C1CF5001F02D2084601F079
:1057B0001CB870B500F016FB00000089FFF7F6BFBB
:1057C0004FF00040A0F580007047000010B591EA4E
:1057D000030F48BF83F0004300F15284841A71EB39
:1057E000030C05D2121943EB0C03001B61EB0C01F7
:1057F000DFF824E14FEA1154A4EB135C1EEA430FD7
:1058000018BF9EEA445F73D023EA0E03DCF1200E3A
:1058100021EA045143F4801332D322FA0CFE10EB38
:105820000E0023FA0CFE41EB0E01CCF1200E03FA20
:105830000EFE10EB0E0051F10001B1F5801FCCF10E
:10584000200E32D201EB045112FA0EF2BDE81040E4
:1058500058BF7047401C38BF5FEA420218BF70470C
:10586000002814BF20F0010041F100014FEA41037C
:1058700013F5001F38BF7047A1F1C04100F000BB15
:10588000012A43EB0302ACF1200CDCF11F0E32BF06
:105890004FF0000E23FA0CF310EB030041EB045120
:1058A000B4EB115FD0D0A1EB045101F58011490890
:1058B0005FEA300001EB04510ED350F1000038BF15
:1058C00012FA0EFE08D1BDE81040C9E7401C38BFEF
:1058D0005FEA4202CAD1C3E7BDE810404FEA410384
:1058E00013F5001F38BF7047A1F1C04100F0C8BADE
:1058F0009EEA445F08D011EA5E0FBDE8104004BF85
:1059000001F0004100207047BDE8104070B500F084
:1059100069FA00BF64FBBE3E0000E0FF02494FF0A1
:10592000000001F01AB800BF0000F87F2DE9C04167
:1059300030B4DFF8A0C23CEA111418BF3CEA1314DB
:1059400000F0EC8081EA03051CEA111444EAD574E6
:1059500018BF1CEA131500F0C780A4EB05044FF034
:10596000004545EAC12145EAC32341EA505143EAD3
:10597000525304F17F74994204F500344FEAC02079
:105980004FEAC22208BF904200F09C804FEA1365A4
:105990000FF24016765D4FEA134506FB05F7C7F197
:1059A000807706FB07F74FEAD737A7FB03687642F5
:1059B000C8F58038A7FB06CE38BFA8F1010807FB61
:1059C00008E64FF0000EA6FB028CE6FB03CEDCF1EE
:1059D000000CCEF1004E38BFAEF1010EA6FB0C5804
:1059E0004FF000074FF00005E6FB0E87A1FB08C64D
:1059F000A0FB07CE16EB0E0645F10005E1FB07659F
:105A000015F1E04E7EBFA4F580345FEA46066D4195
:105A100016F1800745F100054FEA17274FEA0666A1
:105A200047EA0567A6F1DE46B6F1805F4FEA152525
:105A30001FD9384624F0010C05EBC471BCF1FE6F90
:105A400001EB0C1102D8F0BCBDE8008124425CBF20
:105A500001F5801E9EEAC47F02D4F0BCBDE800813F
:105A6000244238D4F0BCA1F1C041BDE8004100F0AF
:105A700007BA4FEAD22242EA43524FEAD323A7FBA6
:105A800002864FEAD02040EA415007FB03661EEA37
:105A90000E0F4FEAD12105FB026658BFA6EB005658
:105AA000B6EB00564FEA520E4EEAC37E18EB0E0ECE
:105AB00056EB530EBDD518EB02085E417F1C55F125
:105AC0000005B6E74FF480154FF000074FF00006D1
:105AD0004FF00008ADE7F0BC4FF0000001F1C0410D
